:100000000C94471E0C9425210C9450210C947B21B8
:100010000C94A6210C94D1210C94FC210C94272241
:100020000C9452220C94781E0C94781E0C94781E1A
:100030000C94781E0C94781E0C94781E0C94781EE8
:100040000C94781E0D9422010C94781E0C94781E4A
:100050000C94781E0C94781E0D943B160C947A1E0A
:100060000C94781E0C94B7DA0C94781E0C94781EBD
:100070000C94781E0C94781E0C94781E0C94781EA8
:100080000C94781E0C94781E0C94781E0C94781E98
:100090000C94781E0C94781E0C94781E0C94EE2B05
:1000A0000C94781E0C94781E0C94781E0C94781E78
:1000B0000C94781E0C94781E0C94781E0C94781E68
:1000C0000C94781E0C94781E0C94781E0C94781E58
:1000D0000C94781E0C94781E0C94781E0C94781E48
:1000E0000C94781EC31FC81FCD1FD71FE11F5A20B5
:1000F000EB1FF31FFB1F05200F20192028203220A3
:100100005A203C20462050207E20812070207420E0
:100110007A20B820852089208F20932097209D2049
:10012000A120A520B820AB20AF20B320FB25FB25C4
:1001300003260B261B2623262B2633263B26132697
:1001400076013201400174014C0166016A013401FB
:100150004E013C016A0148015C016C015801360105
:100160005A016A015E012E013A016A0146015601F7
:1001700038016801720162015401440164012C01DB
:100180006E01300152014A017001500160016A01A3
:100190006A016A016A016A016A016A016A016A0107
:1001A0006A016A016A016A016A016A016A016A01F7
:1001B0006A016A016A016A016A016A016A016A01E7
:1001C0006A016A016A016A016A016A016A016A01D7
:1001D0006A016A016A016A016A016A016A016A01C7
:1001E0006A016A016A016A016A016A016A016A01B7
:1001F0006A016A016A016A016A016A016A016A01A7
:100200006A016A016A016A0142013E01084AD73B5C
:100210003BCE016E84BCBFFDC12F3D6C74319ABDD5
:1002200056833DDA3D00C77F11BED9E4BB4C3E91F9
:100230006BAAAABE000000803F05A84CCDB2D44EE8
:10024000B93836A9020C50B9918688083CA6AAAAEA
:100250002ABE000000803F000D9402290D94AD29B4
:100260000D940E290D94CD280D94BF290D94CF29FE
:100270000D94E4280D94A8290D94C4290D943F29C8
:100280000D94B7290D9424290D94FE280D94B229BC
:100290000D94C7290D9413290D94BB290D94C129E0
:1002A0000D941B290D9410290D94F8280D94E22823
:1002B0000D94CD290D94D1290D94CB290D94972916
:1002C0000D941D290D94F6280D9400290D94BD2937
:1002D0000D94F2280D9471290D948A290D94042906
:1002E0000D9415290D94F4280D94B9290D94CA285C
:1002F00000000A0B02090C0D0E08070304010000A0
:1003000000000000000000000000000000000000ED
:1003100000000000000000000000000012111000AA
:1003200000000000000000000000000000000000CD
:1003300000000000000001021020200808102040EA
:100340001020408002010201080402010102040899
:100350001020408080402010080402018004020127
:100360008040201008040201080402010102040870
:10037000102040800102040810204080050505057A
:10038000070508080808020202020A0A080804040D
:10039000040401010101010101010303030303033B
:1003A0000303040707070C0C0C0C0C0C0C0C0202CA
:1003B000020206060606060606060B0B0B0B0B0BC7
:1003C0000B0B00002200250028002B002E0031001E
:1003D000340002010000050108010B0100002100AA
:1003E000240027002A002D00300033000101000006
:1003F000040107010A015052494E54004D41544531
:100400005249414C004D41494E54454E414E4345A1
:10041000005072696E74696E672077697468205540
:1004200053422E2E2E00476F20746F3A0073757062
:10043000706F727400455230370058206F72205927
:100440002073776974636820737475636B00455219
:1004500030370058206F72205920737769746368B1
:100460002062726F6B656E0045523036005A207301
:10047000776974636820737475636B004552303517
:10048000005A207377697463682062726F6B656EBF
:100490000045523034005361666574792063697297
:1004A0006375697400455230330048656174657244
:1004B000206572726F7200455230320054656D7063
:1004C0002073656E736F722042454400455230318F
:1004D0000054656D702073656E736F7200455252E3
:1004E0004F52202D2053544F5050454400756C748A
:1004F000696D616B65722E636F6D2F004D61726B5C
:10050000325F31372E30322E3200070810387C101F
:1005100010101E801506060606FEFEFEFEFC0000FC
:100520000000000000FCFEFEFEFC0000000EFEFECF
:10053000FEFE0000E0FCFEFEFCE0E0000000CECE8F
:10054000CE000000C0C0C0C0C0C0800000000000DD
:100550000080C0C0800000000000008080C0C0C0DB
:10056000C0C0C0C080800000000006FEFEFEFE008D
:1005700000000080C0C0C00000000000008080C0FB
:10058000C0C080808000000000C0C0C0C00080C02B
:10059000C0C0C08000000000007FFFFFFFFF8000A0
:1005A0000000000080FFFFFFFFFF00000000FFFFD2
:1005B000FFFF000000FFFFFFFF0000000000FFFF43
:1005C000FF00000081F1FFFF3F0F3FFFFCF0F0FC58
:1005D000FF3F0F3FFFFEF880000000C1E1F1F17125
:1005E00031010183FFFFFFFC000000FFFFFFFF0060
:1005F0000C3EFFFFF7C301000000FCFEFF87031164
:100600003131333F3F3F1E000001FFFFFFFF070373
:1006100001010101000000000000010307070F0FA6
:100620000F0F0F0F0F0707070F0F06000000070F30
:100630000F07000000070F0F0700000000000F0F5A
:100640000F0000060F0F070100000001070F0F0742
:100650000100000001070F0F06000003070F0F0E37
:100660000E060703070F0F07000000070F0F070014
:10067000000000030F0F0F060000000307070F0E16
:100680000E0E0E0E0E06000000000F0F0F0F0000E2
:100690000000000000507265763A200043414E434E
:1006A000454C002073656300206D696E0020686F03
:1006B00075720020686F7572730000000000000002
:1006C000005F00000007000700147F147F14242A35
:1006D0007F2A12231308646236495522500005030D
:1006E0000000001C2241000041221C00082A1C2A94
:1006F0000808083E080800503000000808080808EC
:10070000006060000020100804023E5149453E0090
:10071000427F400042615149462141454B31181406
:10072000127F1027454545393C4A49493001710936
:1007300005033649494936064949291E003636001F
:10074000000056360000000814224114141414143A
:1007500041221408000201510906324979413E7EC6
:100760001111117E7F494949363E414141227F4165
:1007700041221C7F494949417F090901013E41410C
:1007800051327F0808087F00417F41002040413FEF
:10079000017F081422417F404040407F0204027FD5
:1007A0007F0408107F3E4141413E7F090909063E12
:1007B0004151215E7F0919294646494949310101C4
:1007C0007F01013F4040403F1F2040201F7F2018F5
:1007D000207F6314081463030478040361514945BE
:1007E0004300007F4141020408102041417F000086
:1007F0000402010204404040404000010204002085
:10080000545454787F48444438384444442038444D
:1008100044487F3854545418087E0901020814547F
:10082000543C7F0804047800447D40002040443D4F
:1008300000007F10284400417F40007C04180478A9
:100840007C0804047838444444387C1414140808A0
:100850001414187C7C080404084854545420043FA1
:100860004440203C4040207C1C2040201C3C403028
:10087000403C44281028440C5050503C4464544C94
:1008800044000836410000007F00000041360800A7
:1008900008082A1C08081C2A080847312046256930
:1008A000205A256920582569205925690047323882
:1008B000205A30205830205930006275696C6470BD
:1008C0006C6174652E006F662061646A757374696B
:1008D0006E6720796F7572007468726F7567682033
:1008E0007468652070726F6365737300492077695F
:1008F0006C6C20677569646520796F7500434F4E95
:1009000054494E55450043414E43454C004732380B
:10091000205A3000746F207072696E7420697421DF
:1009200000616E6420707265737320746865206264
:100930007574746F6E006F6E207468652053442D5B
:10094000636172640053656C65637420612070722A
:10095000696E742066696C650032312F3231004C4B
:1009600045542753205052494E54005265616469E2
:100970006E6720636172642E2E2E0032312F323169
:1009800000796F757220556C74696D616B65723298
:100990002E2E2E00746861742063616D6520776966
:1009A000746800506C6561736520696E736572745C
:1009B0002053442D636172640032312F3231006D57
:1009C000616B652061203344205072696E74210090
:1009D00049276D207265616479206C657427730006
:1009E00032302F32310041524520594F5520524567
:1009F0004144593F0066726F6D206E6F7A7A6C6564
:100A00002E2E2E006D6174657269616C20657869A7
:100A10007473005075736820627574746F6E2077FC
:100A200068656E0031392F323100434F4E54494EC4
:100A30005545004C6F6164696E67206D6174657225
:100A400069616C2E2E2E0031382F32310061626FB9
:100A5000766520746865206172726F772E00796FF9
:100A6000757220556C74696D616B6572322C00660D
:100A7000726F6D207468652072656172206F660008
:100A8000496E73657274206E6577206D617465724E
:100A900069616C0031372F323100434F4E54494E5B
:100AA0005545006D6174657269616C206C6F61649D
:100AB000696E67007072696E74686561642068654C
:100AC0006174696E6720666F7200506C6561736552
:100AD00020776169742C0031362F32310053656CF8
:100AE00065637420746865206D6174657269616CFA
:100AF000006974206973207573696E672E006F66D4
:100B0000206D6174657269616C006B6E6F77732024
:100B100077686174206B696E64004E6F7720796F1F
:100B2000757220556C74696D616B65723200313578
:100B30002F323100434F4E54494E554500697320C2
:100B4000746869732072696768743F00596F752013
:100B5000686176652063686F73656E0031342F328B
:100B60003100594553004E4F00206173206D617470
:100B7000657269616C2C0031332F3231004D415464
:100B8000455249414C00556C74696D616B65723218
:100B90002E00696E7365727420696E2074686973C3
:100BA000006D6174657269616C20796F7520776979
:100BB0006C6C004E6578742C2073656C65637420D2
:100BC0007468650031322F3231005245414459007A
:100BD000746F20696E73657274206D6174657269DB
:100BE000616C2E00746865206E657874207374657E
:100BF0007020697300746865206275696C64706C3C
:100C0000617465004E6F7720746861742077652089
:100C10006C6576656C65640031312F323100434F6D
:100C20004E54494E55450074686520726967687472
:100C300020636F726E65722E2E2E00526570656194
:100C400074207468697320666F720031302F3231FE
:100C500000434F4E54494E554500444F4E45007495
:100C60006865206C65667420636F726E65722E2EE7
:100C70002E00526570656174207468697320666F18
:100C80007200392F323100434F4E54494E554500C2
:100C900062697420726573697374616E63652E0096
:100CA000756E74696C20796F75206665656C20615E
:100CB000006275696C64706C61746520616E64209B
:100CC0006E6F7A7A6C6500536C6964652061207080
:100CD00061706572206265747765656E00382F32C9
:100CE0003100434F4E54494E554500434F4E5449F1
:100CF0004E554500473120462569205A300047317E
:100D0000204625692058256920592569004731204A
:100D1000462569205A3500746865206275696C64DF
:100D2000706C617465206C6576656C2E0070617006
:100D3000657220746F2066696E652D74756E65002E
:100D40006E6F772075736520612073686565742008
:100D50006F660052657065617420746869732073F2
:100D60007465702C2062757400372F323100434F48
:100D70004E54494E55450066726F6D20746865206B
:100D80006275696C64706C6174652E0069732061B2
:100D9000206D696C6C696D6574657220617761792D
:100DA0000073637265772074696C6C2074686520C9
:100DB0006E6F7A7A6C65005475726E20726967681E
:100DC00074206275696C64706C61746500362F32D2
:100DD0003100434F4E54494E55450047312046257A
:100DE00069205A300047312046256920582569205E
:100DF00059256900473120462569205A3500667219
:100E00006F6D20746865206275696C64706C6174C4
:100E1000652E0069732061206D696C6C696D657465
:100E200065722061776179007363726577207469F8
:100E30006C6C20746865206E6F7A7A6C65005475EE
:100E4000726E206C656674206275696C64706C618A
:100E5000746500352F323100434F4E54494E55458D
:100E600000473120462569205A3000473120462569
:100E70006920582569205925690047312046256990
:100E8000205A350066726F6D20746865206275693E
:100E90006C64706C6174652E0061206D696C6C69A6
:100EA0006D65746572206177617900756E74696C27
:100EB00020746865206E6F7A7A6C652069730052C1
:100EC0006F746174652074686520627574746F6EE8
:100ED00000342F323100434F4E54494E55450043A4
:100EE0004F4E54494E554500473120462569205AFA
:100EF000256920582569205925690047323820582E
:100F00003020593000676F696E6720746F20646FFE
:100F10002074686174206E6F772E0061646A757347
:100F2000746D656E74732C2077652061726500772F
:100F300065206E65656420746F20646F20736F6D2B
:100F400065004166746572207472616E73706F72B1
:100F5000746174696F6E00332F323100434F4E5409
:100F6000494E554500473120462569205A256900DC
:100F7000473238205A3000612066697273742072DB
:100F8000756E2077697A6172642E0077616C6B20D0
:100F9000796F75207468726F75676800666972731F
:100FA00074207374617274757020492077696C6C59
:100FB00000426563617573652074686973206973A5
:100FC0002074686500322F323100434F4E54494E31
:100FD000554500627574746F6E20746F20636F6E78
:100FE00074696E756500556C74696D616B6572210D
:100FF0002050726573732074686500737461727435
:101000007570206F6620796F75720057656C636F1D
:101010006D6520746F207468652066697273740052
:10102000312F323100434F4E54494E554500430055
:10103000432F00436C69636B20746F207265747575
:10104000726E004275696C64706C617465207465C1
:101050006D702E3A003F3F3F00466163746F7279B6
:101060002072657365740052756E74696D652073C6
:10107000746174730056657273696F6E00506F7798
:10108000657220627564676574004D6F74696F6E78
:101090002073657474696E677300536574206661AC
:1010A0006E207370656564004D6F7665206D6174A8
:1010B000657269616C00496E73657274206D61744C
:1010C000657269616C005261697365206275696C53
:1010D00064706C617465004C6F776572206275692D
:1010E0006C64706C61746500486F6D652068656143
:1010F0006400486561747570206275696C64706C19
:1011000061746500486561747570206E6F7A7A6CE1
:1011100065004C45442073657474696E67730044C0
:1011200075616C20657874727573696F6E003C2010
:1011300052455455524E004D61726B325F31372E1D
:1011400030322E320025004300432F00432F00434E
:101150002000432F00430025003F3F3F0020476C05
:101160006F77207768656E20646F6E6500204F6E24
:10117000207768696C65207072696E74696E6700AB
:1011800020416C77617973204F66660020416C774F
:10119000617973204F6E004272696768746E65737F
:1011A00073003C2052455455524E00250025004204
:1011B00072696768746E657373004C454400430040
:1011C000432F00436C69636B20746F2072657475E4
:1011D000726E004E6F7A7A6C652074656D70657200
:1011E00061747572653A004300432F00436C696374
:1011F0006B20746F2072657475726E00526F74612B
:10120000746520746F2065787472756465004E6F24
:101210007A7A6C652074656D70657261747572653B
:101220003A003F3F3F0043757272656E742045007F
:1012300043757272656E74205A0043757272656EE2
:101240007420582F59004D617820737065656420B3
:101250005A004D61782073706565642059004D61B6
:1012600078207370656564205800582F59204A65AE
:10127000726B00416363656C65726174696F6E00C7
:101280003C2052455455524E006D41006D41006D59
:1012900041006D6D2F736563006D6D2F7365630085
:1012A0006D6D2F736563006D6D2F736563006D6DDC
:1012B0002F7365635E32006D410043757272656E17
:1012C000742045006D410043757272656E74205A3A
:1012D000006D410043757272656E7420582F59007D
:1012E0006D6D2F736563004D617820737065656463
:1012F000205A006D6D2F736563004D617820737007
:101300006565642059006D6D2F736563004D6178CC
:101310002073706565642058006D6D2F73656300E0
:10132000582F59204A65726B0030306D6D2F7365F0
:10133000635E3200416363656C65726174696F6EF0
:10134000004D4F54494F4E004D61726B325F313743
:101350002E30322E32004665622031392032303153
:10136000372031363A30303A313100526574757277
:101370006E006D00204D61743A003A005072696E43
:1013800074696E673A003A004D616368696E652062
:101390006F6E20666F723A0052657475726E0074DB
:1013A0006F2064656661756C743F00526573657487
:1013B0002065766572797468696E670059455300D7
:1013C0004E4F00250046616E2073706565640047CE
:1013D00031205A343000414456414E434544004781
:1013E0003932204530004255494C442D7C504C4107
:1013F000544500414456414E4345440052455455DE
:10140000524E004350450041425300504C4100545D
:10141000505520393541004350452B004E796C6FB3
:101420006E005043004350450041425300504C4130
:1014300000250046616E3A20004300430025004627
:101440006C6F773A006D6D00636F6D6573206F751B
:101450007420746865206E6F7A7A6C6500576169D4
:10146000742074696C6C206D6174657269616C00C4
:1014700052454144590043414E43454C00466F722A
:1014800077617264696E67206D6174657269616C01
:101490000061626F766520746865206172726F7793
:1014A0002E00796F7572206D616368696E652C001E
:1014B00066726F6D20746865206261636B73696426
:1014C00065206F6600496E73657274206E657720C3
:1014D0006D6174657269616C005245414459004305
:1014E000414E43454C006D6174657269616C2069C1
:1014F0006E73657274696F6E00436F6F6C696E67AF
:10150000207072696E746865616420666F7200484D
:10151000656174696E67207072696E746865616474
:1015200020666F72004D4154455249414C0052654E
:101530006D6F7665206D6174657269616C005245EE
:101540004144590043414E43454C00526576657213
:1015500073696E67206D6174657269616C00666F96
:1015600072206D6174657269616C2072656D6F7651
:10157000616C0048656174696E67207072696E7491
:1015800068656164004D3834205820592045004971
:101590006D706F72742066726F6D205344004578D1
:1015A000706F727420746F20534400437573746FAE
:1015B0006D697A65003C2052455455524E004C6F7F
:1015C00061647320616C6C206D6174657269616C1B
:1015D0007300536176657320616C6C206D61746576
:1015E0007269616C73004D6F646966792074686517
:1015F0002073657474696E677300250046616E3AE6
:101600002000430043002500466C6F773A006D6D63
:10161000003F3F3F0053746F72652061732070720A
:10162000657365740052657472616374696F6E00EE
:10163000466C6F7720250046616E004469616D65D8
:1016400074657200486561746564206275696C64D4
:10165000706C6174650054656D706572617475724B
:1016600065003C2052455455524E00250025006D22
:101670006D00430043200043200054656D70657287
:1016800061747572653A20003C2052455455524EA3
:10169000004300430054656D706572617475726536
:1016A000004D4154455249414C005265747261638A
:1016B00074696F6E3A20003C2052455455524E00DA
:1016C0006D6D2F73006D6D20003F3F3F00526574BC
:1016D0007261637420737065656400526574726131
:1016E0006374206C656E677468003C2052455455E5
:1016F000524E006D6D2F736563006D6D006D6D2F23
:1017000073656300526574726163742073706565FC
:1017100064006D6D0052657472616374206C656E57
:101720006774680052455452414354494F4E004D2E
:101730004154455249414C004E65772070726573A3
:101740006574003C2052455455524E00505245534A
:101750004554530025004D6174657269616C2066C3
:101760006C6F7700250046616E20737065656400BC
:101770006D6D004D6174657269616C204469616DC5
:10178000657465720043004275696C64706C6174C5
:10179000652054656D702E004D4154455249414CB1
:1017A00000696E204D4154455249414C2E545854C5
:1017B00000746F2074686520534420636172640074
:1017C0005361766564206D6174657269616C730044
:1017D0004F6B000A006469616D657465723D000AB3
:1017E00000666C6F773D000A0066616E5F7370651E
:1017F00065643D000A006265645F74656D706572C2
:1018000061747572653D000A003D00726574726115
:101810006374696F6E5F73706565645F000A003D95
:101820000072657472616374696F6E5F6C656E6778
:1018300074685F000A003D0074656D7065726174C4
:101840007572655F000A0074656D7065726174750C
:1018500072653D000A006E616D653D005B6D6174EF
:10186000657269616C5D0A0052656164696E67202A
:10187000636172642E2E2E00506C65617365206961
:101880006E736572742063617264004E6F205344FE
:101890002D43415244210066726F6D2074686520AB
:1018A00053442063617264004C6F61646564206D11
:1018B0006174657269616C73004F6B00726574725C
:1018C000616374696F6E5F73706565645F007265F4
:1018D0007472616374696F6E5F6C656E6774685F64
:1018E0000074656D70657261747572655F0064691E
:1018F000616D6574657200666C6F770066616E5F1E
:101900007370656564006265645F74656D706572AF
:1019100061747572650074656D706572617475725D
:1019200065006E616D65005B6D6174657269616C07
:101930005D00466F756E64206F6E20636172642E69
:10194000004E6F206578706F72742066696C650058
:1019500052656164696E6720636172642E2E2E0089
:10196000506C6561736520696E7365727420636184
:101970007264004E6F2053442D434152442100664F
:101980006F72207365636F6E64617279206E6F7A17
:101990007A6C6500666F72207072696D6172792071
:1019A0006E6F7A7A6C650053656C6563746564204C
:1019B0006D6174657269616C3A004F4B004D415422
:1019C000455249414C004348414E47450053455418
:1019D00054494E47530052455455524E005072657B
:1019E000706172696E6720746F207072696E743AEC
:1019F0000048656174696E672075702E2E2E005444
:101A0000554E450041424F525400257320767320B5
:101A10002573006D6174657269616C2E00666F726A
:101A2000206120646966666572656E740054686939
:101A3000732066696C6520697320637265617465E3
:101A40006400434F4E54494E55450043414E434573
:101A50004C004C4544204272696768746E6573732C
:101A6000004578747275646572206F66667365747C
:101A700000546F6F6C6368616E6765207265747285
:101A8000616374203200546F6F6C6368616E6765C8
:101A900020726574726163742031005265747261E2
:101AA0006374696F6E004D6174657269616C206664
:101AB0006C6F772032004D6174657269616C2066CD
:101AC0006C6F7720310046616E207370656564002D
:101AD0004275696C64706C6174652074656D702EFC
:101AE0000054656D706572617475726520320054C2
:101AF000656D706572617475726520310053706533
:101B000065640041626F7274003C20524554555226
:101B10004E0025002500250025004300430043001A
:101B2000430043004300250041626F7274696E6791
:101B30002E2E2E0041626F727420746865207072C0
:101B4000696E743F00594553004E4F00290020280C
:101B5000004300432F00436C69636B20746F207255
:101B6000657475726E004E6F7A7A6C6520005465EC
:101B70006D706572617475726500290020280043DC
:101B800000432F00436C69636B20746F207265748F
:101B900075726E004275696C64706C617465005496
:101BA000656D7065726174757265003F3F3F0045F9
:101BB00078747275646572206368616E6765206C05
:101BC000656E00526574726163742073706565643C
:101BD0000052657472616374206C656E677468008E
:101BE0003C2052455455524E006D6D2F7365630075
:101BF0006D6D006D6D2F7365630052657472616366
:101C000074207370656564006D6D00526574726157
:101C10006374206C656E677468005245545241438A
:101C200054494F4E0025004272696768746E6573AF
:101C3000730025004D6174657269616C20666C6F7C
:101C40007720320025004D6174657269616C2066F1
:101C50006C6F77203100250046616E2073706565DA
:101C6000640025005072696E7420737065656400AD
:101C700054554E450054696D65206C6566742000AE
:101C80004300430048656174696E67206275696C42
:101C900064706C61746500432F00432000432F0083
:101CA000430048656174696E67005072696E7469BB
:101CB0006E673A0054554E4500504155534500500B
:101CC000617573696E672E2E2E00524553554D4532
:101CD0007C5052494E54004348414E47457C4D414B
:101CE00054455249414C0054554E45004D36303113
:101CF0002058257520592575205A2575204C2573A7
:101D000000746865207072696E742E00596F7520BA
:101D100063616E2072656D6F7665005072696E74D6
:101D20002066696E69736865640068006D696E009D
:101D300054696D6520004241434B20544F204D456E
:101D40004E550043004320005072696E7465722046
:101D5000636F6F6C696E6720646F776E0068006DEB
:101D6000696E0054696D6520004241434B20544F19
:101D7000204D454E55006F66207072696E74696E15
:101D800067206172656100547269656420707269D0
:101D90006E74696E67206F7574004552524F523AE7
:101DA0000052455455524E20544F204D41494E004B
:101DB000756C74696D616B65722E636F6D2F455222
:101DC000303800476F20746F3A0072656164696E45
:101DD000672053442D6361726421004572726F72F3
:101DE000207768696C650052455455524E20544F17
:101DF000204D41494E0047312045300047313000E9
:101E00004731204530004731205A25692046256951
:101E10000066726F6D2074686520736C696365720B
:101E20002E0073657474696E672077697468207317
:101E3000657474696E67006F766572726964652097
:101E40006D616368696E6500546869732066696CCA
:101E5000652077696C6C00434F4E54494E554500E0
:101E600043414E43454C003C204241434B003C2003
:101E700052455455524E005344204341524400476A
:101E80003238003B464C41564F523A556C746947C4
:101E9000436F6465003B464C41564F523A556C7453
:101EA0006947436F6465004E6F2066696C657320F7
:101EB000666F756E6421004F4B004F4B0052656199
:101EC00064696E6720636172642E2E2E00506C650B
:101ED00061736520696E736572742063617264005A
:101EE0004E6F2053442D4341524421004E6F2069D0
:101EF0006E666F20617661696C61626C65004E6F21
:101F00007A7A6C653A20006D006D006D006D004DB1
:101F100061742E3A200054696D653A20003B4D549F
:101F2000595045323A003B4E4F5A5A4C455F44494E
:101F3000414D45544552323A003B4D41544552497A
:101F4000414C323A003B4D545950453A003B4E4FBC
:101F50005A5A4C455F4449414D455445523A003B1D
:101F60004D4154455249414C3A003B54494D453A44
:101F700000466F6C64657200455854525544455292
:101F80007C310045585452554445527C32005245EC
:101F90005455524E004D38342058302059300047A7
:101FA0003120462569205A25692058256920592560
:101FB0006900205A30002059300020583000473244
:101FC00038003F3F3F00290041646A757374205A0E
:101FD00020286E6F7A7A6C652000576970652070D2
:101FE0006F736974696F6E00446F636B696E67200D
:101FF000706F736974696F6E00457874727564658B
:1020000072206F666673657400546F6F6C636861ED
:102010006E67652072657472616374004368616EF7
:102020006765206578747275646572004475616CCB
:10203000206D6F6465003C2052455455524E006F30
:10204000666600656E61626C6564006F6666006559
:102050006E61626C656400576970652064657669BD
:1020600063653A0057697065206465766963650049
:102070006F666600656E61626C656400546F6F6CBC
:102080006368616E67653A00546F6F6C6368616E78
:10209000676520736372697074006F666600656EB1
:1020A00061626C6564004475616C206D6F64653AB3
:1020B000004475616C206D6F646500524554555243
:1020C0004E00436C69636B20746F20726574757287
:1020D0006E0053544F52450053746F7265206475FF
:1020E000616C206D6F6465004475616C2073746170
:1020F0007465004D383420582059006D6D0059002A
:10210000646F636B20706F736974696F6E20790000
:102110006D6D005800646F636B20706F7369746934
:102120006F6E20780043414E43454C0041626F7210
:10213000742066756E6374696F6E0053544F524518
:102140000053746F726520646F636B20706F7369E6
:1021500074696F6E00446F636B696E6720706F7394
:102160006974696F6E00507265706172696E672E76
:102170002E2E0063616C6962726174696F6E2E004D
:10218000646F636B20746F2073746172740070727B
:10219000696E74686561642066726F6D207468652D
:1021A0000052656D6F766520746865207365636F96
:1021B0006E6400434F4E54494E55450043414E43D3
:1021C000454C006D6D005900646F636B20706F7338
:1021D0006974696F6E2079006D6D005800646F63DB
:1021E0006B20706F736974696F6E2078005245546C
:1021F00055524E00436C69636B20746F2072657496
:1022000075726E004D4F5645004D6F7665206865BE
:1022100061640053544F52450053746F72652064DB
:102220006F636B20706F736974696F6E00446F63C6
:102230006B696E6720706F736974696F6E006D6D86
:102240000059007769706520706F736974696F6EEB
:102250002079006D6D0058007769706520706F738C
:102260006974696F6E20780052455455524E004390
:102270006C69636B20746F2072657475726E0053A5
:10228000544F52450053746F726520776970652012
:10229000706F736974696F6E005769706520706F35
:1022A000736974696F6E004475616C20657874722F
:1022B0007573696F6E004D3834006D6D005A0043C0
:1022C000414E43454C0053544F52450074686520BD
:1022D0006275696C64706C617465006E6F7A7A6C9B
:1022E0006520746F7563686573004D6F7665205A5D
:1022F00020756E74696C20746865006D6D005A00FD
:10230000746865206275696C64706C617465006ED8
:102310006F7A7A6C6520746F7563686573004D6FB2
:102320007665205A20756E74696C2074686500505B
:1023300072696D65004578747261207072696D69AB
:102340006E6720286D6D29005370656564005265C5
:10235000747261637420737065656420286D6D2FDD
:102360007329004C656E0052657472616374206C51
:10237000656E20286D6D290052455455524E00431C
:102380006C69636B20746F2072657475726E005394
:10239000544F52450053746F7265207265747261B8
:1023A00063742076616C75657300546F6F6C63683D
:1023B000616E67652072657472616374002900281C
:1023C000006D6D005A005A206F66667365740029AF
:1023D00000280059206F6666736574206C696E650D
:1023E000206E6F2E006D6D00590059206F66667368
:1023F0006574002900280058206F66667365742094
:102400006C696E65206E6F2E006D6D00580058204F
:102410006F66667365740052455455524E00436CA6
:1024200069636B20746F2072657475726E0053540B
:102430004F52450053746F7265206F666673657402
:1024400073004578747275646572206F6666736593
:1024500074005700457874727564657220320032DA
:10246000005761747461676520457874727564659E
:1024700072005700310045787472756465720031DE
:10248000005761747461676520457874727564657E
:10249000720057004275696C64706C617465005716
:1024A000617474616765204275696C64706C6174F5
:1024B00065005700546F74616C00546F74616C2038
:1024C000506F7765722042756467657400424143BE
:1024D0004B004241434B00436C69636B20746F2097
:1024E00072657475726E0053544F52450053746F89
:1024F0007265206F7074696F6E7300506F776572CC
:1025000020427564676574004732380047323820CE
:102510005A300047323820583020593000776970DF
:102520006500543100543000636F6E666967006562
:1025300063686F3A00205900205800576970652081
:10254000706F736974696F6E3A0064697361626C6D
:10255000656400656E61626C6564004669726D77E2
:1025600061726520776970653A2000205900205813
:1025700000446F636B20706F736974696F6E3A000B
:10258000486F6D65206F6666736574207A32202807
:102590006D6D293A200064697361626C6564006541
:1025A0006E61626C6564004475616C20736574755E
:1025B000703A20006563686F3A004163746976651C
:1025C0002045787472756465723A200041637469BD
:1025D00076652045787472756465723A2000507291
:1025E000696E7465722073746F70706564206475B1
:1025F0006520746F206572726F72732E2046697841
:1026000020746865206572726F7220616E64207537
:102610007365204D39393920746F20726573746188
:1026200072742E202854656D7065726174757265C0
:102630002069732072657365742E20536574206958
:102640007420616674657220726573746172746956
:102650006E6729005072696E7465722068616C74CF
:1026600065642E206B696C6C28292063616C6C6535
:102670006421006F6B00526573656E643A20002020
:10268000496E76616C6964206578747275646572F0
:10269000004D0020400020403A002042403A0020F7
:1026A0002F00205400202F0020423A00202F00202D
:1026B000543A006F6B00456E6473746F70207374CE
:1026C000696C6C20707265737365642061667465F3
:1026D00072206261636B696E67206F66662E2045AB
:1026E0006E6473746F7020737475636B3F00456E16
:1026F0006473746F70206E6F74207072657373658D
:102700006420616674657220686F6D696E6720640D
:102710006F776E2E20456E6473746F702062726FD7
:102720006B656E3F002200556E6B6E6F776E206397
:102730006F6D6D616E643A202200456C6563747242
:102740006F6E6963735F7465737400416374697657
:10275000652045787472756465723A200020496E70
:1027600076616C6964206578747275646572005472
:102770000020423A300020423A31006F6B20523A3A
:102780000020633A0020643A0020693A0020703A41
:10279000006F6B002C002000486F74656E64206F22
:1027A0006666736574733A002200556E6B6E6F77C0
:1027B0006E20636F6D6D616E643A2022006F7065EC
:1027C0006E00545249474745524544007A5F6D6157
:1027D000783A20006F70656E005452494747455261
:1027E000454400795F6D61783A20006F70656E0036
:1027F00054524947474552454400785F6D696E3AE7
:1028000020005265706F7274696E6720656E647324
:10281000746F7020737461747573005A3A00593A7A
:102820000020436F756E7420583A2000453A005AD4
:102830003A00593A00583A004649524D57415245DC
:102840005F4E414D453A4D61726C696E20556C7416
:10285000696D616B6572323B20537072696E74658D
:10286000722F6772626C206D617368757020666F7D
:10287000722067656E36204649524D574152455F7A
:1028800055524C3A687474703A2F2F6769746875A2
:10289000622E636F6D2F556C74696D616B6572206C
:1028A00050524F544F434F4C5F56455253494F4E31
:1028B0003A312E30204D414348494E455F545950DE
:1028C000453A556C74696D616B6572204558545278
:1028D000554445525F434F554E543A320A003F002B
:1028E00020573A002569206D696E2C2025692073D8
:1028F000656300456E642066696C65206C6973745D
:1029000000426567696E2066696C65206C69737446
:1029100000256920686F757273202569206D696EC6
:102920007574657300446F6E65207072696E7469AA
:102930006E672066696C65005072696E74657220FE
:1029400073746F707065642064756520746F2065A2
:1029500072726F72732E20466978207468652065E4
:1029600072726F7220616E6420757365204D393903
:102970003920746F20726573746172742E2028542C
:10298000656D70657261747572652069732072651A
:102990007365742E205365742069742061667465B4
:1029A000722072657374617274696E6729006F6B4F
:1029B000004E6F204C696E65204E756D6265722009
:1029C0007769746820636865636B73756D2C204C40
:1029D000617374204C696E653A20004E6F20436825
:1029E00065636B73756D2077697468206C696E65BB
:1029F000206E756D6265722C204C617374204C6979
:102A00006E653A2000636865636B73756D206D6950
:102A1000736D617463682C204C617374204C696E13
:102A2000653A20004C696E65204E756D62657220B6
:102A30006973206E6F74204C617374204C696E65ED
:102A4000204E756D6265722B312C204C61737420A1
:102A50004C696E653A20004D31313000446F6E652F
:102A600020736176696E672066696C652E006F6BF6
:102A7000004D3239002020506C616E6E65724275D7
:102A80006666657242797465733A20002046726505
:102A900065204D656D6F72793A2000466562203180
:102AA00039203230313700436F6D70696C65643A9C
:102AB00020004D61726B325F31372E30322E320082
:102AC000207C20417574686F723A20004665622050
:102AD000313920323031372031363A30303A3133E3
:102AE00000204C61737420557064617465643A20F1
:102AF00000312E302E30004D61726C696E20002046
:102B0000536F667477617265205265736574002037
:102B10005761746368646F67205265736574002041
:102B200042726F776E206F75742052657365740002
:102B30002045787465726E616C205265736574000F
:102B4000506F776572557000737461727400220063
:102B5000656E717565696E672022002200656E7171
:102B60007565696E67202200FF01010000E04000EA
:102B700000E0400000E040000066430000614300C8
:102B80000061430000000000006143000061430059
:102B90000066430000614300006143000000000044
:102BA000000000000000006563686F3A0045727223
:102BB0006F723A0000002110422063308440A5501B
:102BC000C660E770088129914AA16BB18CC1ADD173
:102BD000CEE1EFF13112100273325222B55294421B
:102BE000F772D662399318837BB35AA3BDD39CC3C3
:102BF000FFF3DEE36224433420040114E664C77467
:102C0000A44485546AA54BB528850995EEE5CFF512
:102C1000ACC58DD55336722611163006D776F666BA
:102C20009556B4465BB77AA719973887DFF7FEE762
:102C30009DD7BCC7C448E5588668A7784008611886
:102C400002282338CCC9EDD98EE9AFF948896999B2
:102C50000AA92BB9F55AD44AB77A966A711A500A5A
:102C6000333A122AFDDBDCCBBFFB9EEB799B588B02
:102C70003BBB1AABA66C877CE44CC55C222C033CA6
:102C8000600C411CAEED8FFDECCDCDDD2AAD0BBD52
:102C9000688D499D977EB66ED55EF44E133E322EFA
:102CA000511E700E9FFFBEEFDDDFFCCF1BBF3AAFA2
:102CB000599F788F8891A981CAB1EBA10CD12DC100
:102CC0004EF16FE18010A100C230E3200450254096
:102CD00046706760B9839893FBA3DAB33DC31CD3F6
:102CE0007FE35EF3B1029012F322D23235421452E6
:102CF00077625672EAB5CBA5A89589856EF54FE542
:102D00002CD50DC5E234C324A01481046674476435
:102D100024540544DBA7FAB79987B8975FE77EF795
:102D20001DC73CD7D326F2369106B0165766767685
:102D3000154634564CD96DC90EF92FE9C899E98961
:102D40008AB9ABA94458654806782768C018E108D5
:102D50008238A3287DCB5CDB3FEB1EFBF98BD89B35
:102D6000BBAB9ABB754A545A376A167AF10AD01A25
:102D7000B32A923A2EFD0FED6CDD4DCDAABD8BAD81
:102D8000E89DC98D267C076C645C454CA23C832C75
:102D9000E01CC10C1FEF3EFF5DCF7CDF9BAFBABFD5
:102DA000D98FF89F176E367E554E745E932EB23EC5
:102DB000D10EF01E7C3C3E5E2B3D3F2F5B5D3B2CDD
:102DC0002A225C0020746F6F206C6F6E672065781C
:102DD00074727573696F6E2070726576656E746556
:102DE000640020636F6C6420657874727573696F1A
:102DF0006E2070726576656E746564006563686FD9
:102E00003A00205A3A0020593A0020583A00656E9C
:102E10006473746F7073206869743A200024F4D46A
:102E20003050C38E20C2A24017828B7011127A914B
:102E30000D816CD90AA861E108C758660761514342
:102E4000061E4B5D05C145A7041A411104093D98B2
:102E500003713931034036DB0265339102D43054BB
:102E600002802E1D02632CEE01752AC501B028A038
:102E700001102781018F2564012B244B01E02234AE
:102E800001AC211F018D200D01801FFC00841EED6F
:102E900000971DDF00B81CD200E61BC600201BBC3B
:102EA00000641AB200B219A8000A19A0006A1899A1
:102EB00000D117910040178B00B516840031167EA3
:102EC00000B31579003A157300C7146F0058146ADF
:102ED00000EE1366008813630025135E00C7125BC3
:102EE000006C12570015125400C111510070114F9F
:102EF0000021114B00D61049008D104700461044A8
:102F00000002104200C00F4000800F3E00420F3C04
:102F100000060F3B00CB0E3800930E37005C0E35D9
:102F200000270E3400F30D3200C10D3100900D303A
:102F300000600D2E00320D2D00050D2C00D90C2B3C
:102F400000AE0C2900850C29005C0C2700350C27ED
:102F5000000E0C2600E80B2400C40B2400A00B2359
:102F6000007D0B23005A0B2100390B2100180B2088
:102F700000F80A1F00D90A1E00BB0A1E009D0A1D88
:102F800000800A1D00630A1C00470A1B002C0A1B54
:102F900000110A1A00F7091A00DD091900C40919FD
:102FA00000AB091900920917007B09180063091783
:102FB000004C09160036091600200916000A0915EA
:102FC00000F5081500E0081400CC081400B8081437
:102FD00000A4081400900813007D0812006B081369
:102FE0000058081200460812003408110023081186
:102FF000001208110001081100F0071000E007108E
:1030000000D0071000C0071000B0070F00A1071084
:103010000091070E0083070F0074070F0065070E6D
:103020000057070E0049070E003B070D002E070E44
:103030000020070D0013070D0006070D00F9060C10
:1030400000ED060D00E0060C00D4060C00C8060CCE
:1030500000BC060C00B0060C00A4060B0099060C80
:10306000008D060B0082060B0077060B006C060B2A
:103070000061060A0057060B004C060A0042060AC9
:103080000038060A002E060A0024060A001A060A5C
:10309000001006090007060A00FD050900F40509ED
:1030A00000EB050900E2050900D9050900D0050972
:1030B00000C7050900BE050900B5050800AD0508F3
:1030C00000A50509009C050800940508008C05086A
:1030D00000840508007C050800740508006C0507DD
:1030E00000650508005D050700560508004E050748
:1030F00000470507004005080038050700310507AF
:10310000002A050700230507001C05060016050711
:10311000000F0507000805060002050700FB04066E
:1031200000F5040700EE040600E8040600E20407C8
:1031300000DB040600D5040600CF040600C904061F
:1031400000C3040600BD040600B7040600B1040570
:1031500000AC040600A6040600A00405009B0406BB
:103160000095040500900406008A04050085040506
:1031700000800406007A040500750405007004054B
:10318000006B04050066040500610405005C04058D
:103190000057040500520405004D040500480405CD
:1031A00000430405003E0404003A0405003504050C
:1031B00000300404002C0405002704040023040547
:1031C000001E0404001A040400160405001104047F
:1031D000000D0404000904050004040400000404B4
:1031E00000FC030400F8030400F4030400F00304EB
:1031F00000EC030400E8030400E4030400E003041B
:1032000000DC030400D8030400D4030400D003044A
:1032100000CC030400C8030300C503030024F40426
:10322000D9201BC40C5C0E9804C4095F02650771A9
:1032300001F405F900FB04B30048048700C10369E9
:10324000005803550003034500BE023A00840231D2
:103250000053022A002902250004022000E4011C78
:1032600000C8011900AF0117009801140084011370
:1032700000710110006101100051010E0043010DA9
:103280000036010B002B010B0020010B001501097A
:10329000000C01090003010800FB000800F300080E
:1032A00000EB000700E4000600DE000600D8000680
:1032B00000D2000600CC000500C7000500C20005D2
:1032C00000BD000400B9000400B5000400B1000412
:1032D00000AD000400A9000400A5000300A2000343
:1032E000009F0004009B000300980003009500026B
:1032F0000093000300900003008D0002008B000388
:1033000000880002008600020084000300810002A1
:10331000007F0002007D0002007B000200790002B5
:1033200000770001007600020074000200720001C4
:1033300000710002006F0002006D0001006C0002CD
:10334000006A0001006900020067000100660001D8
:1033500000650001006400020062000100610001DC
:1033600000600001005F0002005D0001005C0001E0
:10337000005B0001005A00010059000100580001E3
:1033800000570001005600010055000100540001E3
:1033900000530000005300010052000100510001E1
:1033A00000500001004F0001004E0000004E0001DF
:1033B000004D0001004C0001004B0000004B0001DB
:1033C000004A0001004900010048000000480001D7
:1033D00000470001004600000046000100450000D3
:1033E00000450001004400010043000000430001CB
:1033F00000420000004200010041000000410001C5
:1034000000400001003F0000003F0001003E0000BE
:10341000003E0001003D0000003D0001003C0000B6
:10342000003C0000003C0001003B0000003B0001AC
:10343000003A0000003A00010039000000390001A4
:10344000003800000038000000380001003700009C
:103450000037000100360000003600000036000191
:103460000035000000350000003500010034000088
:10347000003400000034000100330000003300007D
:103480000033000100320000003200000032000171
:103490000031000000310000003100010030000068
:1034A0000030000000300001002F0000002F00005D
:1034B000002F0000002F0001002E0000002E000051
:1034C000002E0001002D0000002D0000002D000046
:1034D000002D0001002C0000002C0000002C00003A
:1034E000002C0001002B0000002B0000002B00002E
:1034F000002B0001002A0000002A0000002A000022
:10350000002A000100290000002900000029000015
:103510000029000000290001002800000028000008
:1035200000280000002800000028000100270000FB
:1035300000270000002700000027000000270001EE
:1035400000260000002600000026000000260000E3
:1035500000260001002500000025000000250000D5
:1035600000250000002500000025000100240000C7
:1035700000240000002400000024000000240001BA
:1035800000230000002300000023000000230000AF
:10359000002300000023000000230001002200009F
:1035A0000022000000220000002200000022000093
:1035B0000022000100210000002100000021000085
:1035C0000021000000210000002100000021000176
:1035D000002000000020000000200000002000006B
:1035E000002000000020000000200000002000015A
:1035F000001F0000001F0000001F0000001F00004F
:10360000001F0000001F0000001F0001001E00003E
:10361000001E0000001E0000001E00000065636820
:103620006F3A003A2045787472756465722073773A
:10363000697463686564206F66662E204D494E5438
:10364000454D50207472696767657265642021007A
:103650003A20457874727564657220737769746373
:10366000686564206F66662E204D415854454D5064
:103670002074726967676572656420210054656D06
:103680007065726174757265206865617465642027
:10369000626564207377697463686564206F666629
:1036A0002E204D415854454D50207472696767650E
:1036B00072656420212100202D20496E76616C699D
:1036C00064206578747275646572206E756D6265CC
:1036D00072202100504944204175746F74756E65E5
:1036E0002066696E69736865642120507574207462
:1036F0006865204B702C204B6920616E64204B6400
:1037000020636F6E7374616E747320696E746F20C2
:10371000436F6E66696775726174696F6E2E6800BB
:10372000504944204175746F74756E6520666169F7
:103730006C6564212074696D656F75740020403A72
:10374000006F6B20543A006F6B20423A005049449E
:10375000204175746F74756E65206661696C65646F
:10376000212054656D706572617475726520746F87
:103770006F206869676800204B643A2000204B691D
:103780003A2000204B703A200020436C617373692B
:10379000632050494420002054753A2000204B7586
:1037A0003A2000206D61783A2000206D696E3A2041
:1037B0000020643A200020626961733A2000504979
:1037C00044204175746F74756E65207374617274F2
:1037D00000504944204175746F74756E65206661B0
:1037E000696C65642E20426164206578747275642A
:1037F0006572206E756D6265722E004572726F7211
:103800003A000000000018070100A8071400300863
:103810002800B8083C0038095000C0096400480A74
:103820007800C80A8C00480BA000C80BB400480CF4
:10383000C800C80CDC00400DF000C00D0401380EBB
:103840001801B00E2C01280F4001A00F54011810D0
:10385000680188107C01001190013013F4014815B3
:1038600058024017BC0228192003F01A8403A81C30
:10387000E803401E4C0443616E6E6F7420656E74E5
:103880006572207375626469723A20004D323400AB
:103890004D3233202573006175746F25692E6700E2
:1038A0006572726F722077726974696E6720746FC7
:1038B0002066696C650043617264206572726F7284
:1038C0003A004E6F74205344207072696E74696EB2
:1038D00067002F005344207072696E74696E672010
:1038E0006279746520002E0044656C6574696F6EA2
:1038F000206661696C65642C2046696C653A20001D
:1039000046696C652064656C657465643A002E00D8
:103910006F70656E206661696C65642C2046696C09
:10392000653A200057726974696E6720746F20666B
:10393000696C653A20002E006F70656E20666169C3
:103940006C65642C2046696C653A20002E006F700F
:10395000656E206661696C65642C2046696C653A09
:10396000200046696C652073656C6563746564004E
:103970002053697A653A200046696C65206F70654E
:103980006E65643A20002E006F70656E2066616976
:103990006C65642C2046696C653A200053442063B2
:1039A000617264206F6B006F70656E526F6F742070
:1039B0006661696C656400766F6C756D652E696E05
:1039C0006974206661696C656400534420696E699E
:1039D00074206661696C002F002F0043616E6E6F6A
:1039E00074206F70656E2073756264697200656320
:1039F000686F3A004572726F723A00486172646390
:103A00006F6465642044656661756C7420536574E9
:103A100074696E6773204C6F616465640056303161
:103A2000300053746F7265642073657474696E67D7
:103A300073207265747269657665640020440020A5
:103A400049002020204D333031205000504944207F
:103A500073657474696E67733A00205A00205900C8
:103A600020204D323036205800486F6D65206F663B
:103A70006673657420286D6D293A00204500205A30
:103A80000020580020420020540020204D323035C4
:103A9000205300416476616E6365642076617269CB
:103AA00061626C65733A20533D4D696E20666565B1
:103AB000647261746520286D6D2F73292C20543D2C
:103AC0004D696E2074726176656C206665656472FE
:103AD00061746520286D6D2F73292C20423D6D691E
:103AE0006E696D756D207365676D656E74207469A0
:103AF0006D6520286D73292C20583D6D6178696DA6
:103B0000756D205859206A65726B20286D6D2F7372
:103B1000292C20205A3D6D6178696D756D205A20E1
:103B20006A65726B20286D6D2F73292C2020453D0E
:103B30006D6178696D756D2045206A65726B20280E
:103B40006D6D2F73290020540020204D3230342019
:103B50005300416363656C65726174696F6E3A20EE
:103B6000533D616363656C65726174696F6E2C208F
:103B7000543D7265747261637420616363656C6542
:103B8000726174696F6E00204500205A0020590050
:103B900020204D3230312058004D6178696D756DAF
:103BA00020416363656C65726174696F6E20286D76
:103BB0006D2F7332293A00204500205A0020590009
:103BC00020204D3230332058004D6178696D756D7D
:103BD0002066656564726174657320286D6D2F734E
:103BE000293A00204500205A0020590020204D3954
:103BF0003220580053746570732070657220756EA2
:103C000069743A0053657474696E67732053746FF6
:103C1000726564006563686F3A00544553540D0A39
:103C2000000D0A00556E6B6E6F776E20636F6D6DC1
:103C3000616E643A20000D0A003F004D61726B32E4
:103C40005F31372E30322E32004E414E494E4954AC
:103C500059494E46CDCCCC3D0AD7233C17B7D13875
:103C600077CC2B329595E6241FB14F0A00002041F6
:103C70000000C84200401C4620BCBE4CCA1B0E5A65
:103C8000AEC59D74A5981EA87BDA27A883DA1124F7
:103C90001FBECFEFD1E2DEBFCDBF00E00CBF13E00F
:103CA000A0E0B2E0E2EFFEE602E00BBF02C0079048
:103CB0000D92A236B107D9F728E1A2E6B3E001C020
:103CC0001D92A03EB207E1F71EE1C5E4DEE100E08F
:103CD00006C021970109802FFE010F94152FC234D1
:103CE000D10780E00807A9F70F940E2A0D946737D3
:103CF0000C9400001F920F920FB60F9211242F9375
:103D00003F938F939F93AF93BF9380916303909161
:103D10006403A0916503B09166033091620323E0D0
:103D2000230F2D3720F40196A11DB11D05C026E8F3
:103D3000230F0296A11DB11D20936203809363039C
:103D400090936403A0936503B09366038091670327
:103D500090916803A0916903B0916A030196A11D37
:103D6000B11D8093670390936803A0936903B09398
:103D70006A03BF91AF919F918F913F912F910F90C7
:103D80000FBE0F901F9018952FB7F89460916303A2
:103D90007091640380916503909166032FBF08952D
:103DA0003FB7F8948091670390916803A0916903ED
:103DB000B0916A0326B5A89B05C02F3F19F0019664
:103DC000A11DB11D3FBFBA2FA92F982F8827820FA1
:103DD000911DA11DB11DBC01CD0142E0660F771FF1
:103DE000881F991F4A95D1F708958F929F92AF929D
:103DF000BF92CF92DF92EF92FF926B017C01D0DFF6
:103E00004B015C01C114D104E104F104F1F093D041
:103E1000C7DFDC01CB0188199909AA09BB09883ED3
:103E20009340A105B10570F321E0C21AD108E10861
:103E3000F10888EE880E83E0981EA11CB11CC11405
:103E4000D104E104F10421F7DDCFFF90EF90DF9082
:103E5000CF90BF90AF909F908F9008958230910542
:103E600038F0880F991F880F991F05970197F1F770
:103E70000895789484B5826084BD84B5816084BDE2
:103E800085B5826085BD85B5816085BDEEE6F0E0D3
:103E9000808181608083E1E8F0E01082808182602F
:103EA0008083808181608083E0E8F0E080818160B0
:103EB0008083E1EBF0E0808184608083E0EBF0E0E0
:103EC000808181608083E1E9F0E08081826080838D
:103ED000808181608083E0E9F0E08081816080837F
:103EE000E1EAF0E08081826080838081816080836C
:103EF000E0EAF0E0808181608083E1E2F1E08081AE
:103F000082608083808181608083E0E2F1E0808153
:103F100081608083EAE7F0E0808184608083808133
:103F200082608083808181608083808180688083DB
:103F30001092C100089508951F93CF93DF93182F17
:103F4000EB0161E016D1209711F460E004C0CF3F8F
:103F5000D10531F461E0812FDF91CF911F9145C1EF
:103F6000E12FF0E0E051FD4FE4914E2F50E0FA01D7
:103F70003197E231F10508F09DC08827EE58FF4FD8
:103F80008F4F0D94152F84B5806884BDC7BD97C031
:103F900084B5806284BDC8BD92C080918000806875
:103FA00080938000D0938900C093880088C080915E
:103FB0008000806280938000D0938B00C0938A0041
:103FC0007EC080918000886080938000D0938D00B7
:103FD000C0938C0074C08091B00080688093B00062
:103FE000C093B3006CC08091B00080628093B00039
:103FF000C093B40064C0809190008068809390006A
:10400000D0939900C09398005AC08091900080622C
:1040100080939000D0939B00C0939A0050C08091F1
:104020009000886080939000D0939D00C0939C0086
:1040300046C08091A00080688093A0008091A0007D
:104040008F7B8093A000D093A900C093A80037C0B5
:104050008091A00080628093A000D093AB00C093B9
:10406000AA002DC08091A00088608093A000D0930A
:10407000AD00C093AC0023C0809120018068809384
:104080002001D0932901C093280119C080912001FB
:10409000806280932001D0932B01C0932A010FC02E
:1040A00080912001886080932001D0932D01C093DE
:1040B0002C0105C0C038D1050CF04CCF46CFDF91A4
:1040C000CF911F91089590E0FC013197E231F10505
:1040D00008F04EC08827EC57FF4F8F4F0D94152FD7
:1040E000809180008F7703C0809180008F7D8093C6
:1040F0008000089580918000877FF9CF84B58F7705
:1041000002C084B58F7D84BD08958091B0008F7703
:1041100003C08091B0008F7D8093B000089580919E
:1041200090008F7707C0809190008F7D03C08091B1
:104130009000877F8093900008958091A0008F77F2
:1041400007C08091A0008F7D03C08091A000877F71
:104150008093A0000895809120018F7707C08091FF
:1041600020018F7D03C080912001877F80932001F3
:104170000895CF93DF9390E0FC01EA5CFC4F24911B
:10418000FC01E458FC4F8491882361F190E0880F92
:10419000991FFC01E452FC4FC591D491FC01EE53F0
:1041A000FC4FA591B491611109C09FB7F894888123
:1041B000209582238883EC912E230BC0623061F41A
:1041C0009FB7F8943881822F809583238883EC9160
:1041D0002E2B2C939FBF06C08FB7F894E8812E2B0F
:1041E00028838FBFDF91CF9108951F93CF93DF93E3
:1041F000282F30E0F901E051FD4F8491F901EA5C8C
:10420000FC4FD491F901E458FC4FC491CC23C1F088
:10421000162F811158DFEC2FF0E0EE0FFF1FEE5349
:10422000FC4FA591B4918FB7F894111105C09C91E2
:10423000ED2FE095E92302C0EC91ED2BEC938FBFBD
:10424000DF91CF911F91089508951F920F920FB69D
:104250000F9211240BB60F922F933F934F935F93BE
:104260006F937F938F939F93AF93BF93EF93FF933E
:10427000E0910E02F0910F021995FF91EF91BF911D
:10428000AF919F918F917F916F915F914F913F91EE
:104290002F910F900BBE0F900FBE0F901F9018958F
:1042A0001F920F920FB60F9211240BB60F922F93FD
:1042B0003F934F935F936F937F938F939F93AF93AE
:1042C000BF93EF93FF93E0911002F09111021995C3
:1042D000FF91EF91BF91AF919F918F917F916F91DE
:1042E0005F914F913F912F910F900BBE0F900FBE9A
:1042F0000F901F9018951F920F920FB60F921124D6
:104300000BB60F922F933F934F935F936F937F93CF
:104310008F939F93AF93BF93EF93FF93E09112021C
:10432000F09113021995FF91EF91BF91AF919F9179
:104330008F917F916F915F914F913F912F910F904E
:104340000BBE0F900FBE0F901F9018951F920F92EB
:104350000FB60F9211240BB60F922F933F934F93EA
:104360005F936F937F938F939F93AF93BF93EF93DD
:10437000FF93E0911402F09115021995FF91EF91CE
:10438000BF91AF919F918F917F916F915F914F916D
:104390003F912F910F900BBE0F900FBE0F901F906B
:1043A00018951F920F920FB60F9211240BB60F9211
:1043B0002F933F934F935F936F937F938F939F932D
:1043C000AF93BF93EF93FF93E0910A02F0910B023A
:1043D0001995FF91EF91BF91AF919F918F917F912F
:1043E0006F915F914F913F912F910F900BBE0F9066
:1043F0000FBE0F901F9018951F920F920FB60F923D
:1044000011240BB60F922F933F934F935F936F93AB
:104410007F938F939F93AF93BF93EF93FF93E0911D
:104420000C02F0910D021995FF91EF91BF91AF91A0
:104430009F918F917F916F915F914F913F912F91BC
:104440000F900BBE0F900FBE0F901F9018951F92EC
:104450000F920FB60F9211240BB60F922F933F932A
:104460004F935F936F937F938F939F93AF93BF937C
:10447000EF93FF93E0911602F09117021995FF91C7
:10448000EF91BF91AF919F918F917F916F915F91CC
:104490004F913F912F910F900BBE0F900FBE0F9039
:1044A0001F9018951F920F920FB60F9211240BB602
:1044B0000F922F933F934F935F936F937F938F93BD
:1044C0009F93AF93BF93EF93FF93E0911802F09106
:1044D00019021995FF91EF91BF91AF919F918F9123
:1044E0007F916F915F914F913F912F910F900BBEF4
:1044F0000F900FBE0F901F901895FF920F931F9370
:10450000CF93DF9388E89FEF909393038093920378
:104510004091820388E0840F405E682F0E94642CE3
:104520000E942A32809182038435D8F543E155E018
:1045300066E180E00E943533D7E1C6E100E010E09B
:10454000F02E40918203842F90E0880F991F9801EC
:104550002D5E3F4F2817390744F4440F4451401B48
:104560002D2F6C2F80E00E94353280918203282FFE
:1045700030E0220F331F2017310734F0880F2D2F22
:104580004FE76C2F8F1904C02D2F4FE76C2F80E061
:104590000E9435320F5F1F4FCE5FDE5FCA3281F659
:1045A00009C081508093820343E155E066E180E0D9
:1045B0000E9435336CEF74E086E30E942D300E9438
:1045C000312C80916B03811112C02091820330E065
:1045D000220F331F40912602429FC001439F900D3E
:1045E000112464E670E00F94C42E88E0A5DC80916D
:1045F0008103811104C0809191038823E1F18091AE
:104600006B0381110CC0809126022FEF829FC001A5
:10461000112464E670E00F94C42E88E08DDC1092C3
:104620008103109282034CE360E380E30E94642CD8
:104630008091910381110E940D3480E094E00F94E9
:104640003637853579F420E030E0A9016091F60D28
:104650007091F70D8091F80D9091F90D0F94F62A55
:10466000811103C083EB91E402C081E493E2909353
:104670008A0380938903DF91CF911F910F91FF905F
:10468000089545E054E06CEF73E086EF93E02DD49D
:1046900080919103882359F1809192039091930323
:1046A0009C01295F3F4F2F30310560F40E94B47D9B
:1046B0008DE09EE00F94F41A41E062E070E082EC3D
:1046C0009DE714C09C01285031092830310530F491
:1046D00041E068E87FEF8DE59DE508C040970897C9
:1046E00030F441E068E87FEF8AE492E4EAD3809115
:1046F00090038823A1F080919203909193038838CE
:104700009F4F69F41092810380918203893C58F095
:1047100041E068E87FEF85E993E2D3D304C01092CB
:104720008103109282030C94312C9F92AF92BF921E
:10473000CF92DF92EF92FF920F931F93CF93DF936D
:10474000809192039091930388389F4F59F58AE1A5
:1047500090E0909393038093920321E139E043E04A
:1047600053E080E090E0F901E80FF91F50830196D3
:1047700085309105C1F741502B5F3F4F4111F1CF7B
:10478000109221091092200980E099E39093230967
:10479000809322091092250910922409109227096A
:1047A00010922609809192039091930397FF04C081
:1047B000109293031092920380919203909193032D
:1047C000880F991F8B36910534F085E390E0909324
:1047D000930380939203809124099091250940913D
:1047E000200950912109480F591F509321094093E6
:1047F00020096091260970912709209122093091A2
:104800002309260F371F30932309209322094F3F96
:10481000510509F01CF497FF0DC009C04130ECE7C9
:104820005E0764F097FF03C091958195910991957A
:104830008195910990932509809324092F3F310593
:1048400009F05CF4CB0177FF03C091958195910944
:10485000909327098093260905C02115FEE13F07A3
:104860000CF051C0952F990F990B852F69E170E0DD
:104870000F94C42E262F932F990F990B832F6AE044
:1048800070E00F94C42E85E0689FF0011124E20FC0
:10489000F11DEF5EF64F80818823A9F1815080835E
:1048A000809126099091270997FF03C091958195E2
:1048B0009109909327098093260941E159E0BA01B3
:1048C00023E080E090E0FB01E80FF91F3081311117
:1048D0001AC0019685309105B1F721506B5F7F4F6B
:1048E0002111EFCF23E033E080E090E0FA01E80F00
:1048F000F91F3083019685309105C1F721504B5F38
:104900005F4F2111F1CF80912209909123098130CD
:104910009A430CF448C020912009309121098091DC
:104920009203909193030197880F991F582F442762
:104930002417350734F04796982F88278217930756
:1049400034F441E068E87FEF81E493E2BAD2209149
:104950009203309193038BEF9FEF821B930B982F61
:104960008827990F2091200930912109820F931FE8
:1049700097FDCF9656E0959587955A95E1F720914A
:10498000240930912509820F931F90932509809364
:10499000240997FF03C091958195910992509093B6
:1049A0002709809326098091260990912709892B50
:1049B00059F580E099E3909323098093220980912F
:1049C0009203909193039C012B5F3F4F220F331F63
:1049D0001092200920932109209191032223A1F014
:1049E000809733E0880F991F3A95E1F79093250956
:1049F0008093240997FF03C0919581959109925066
:104A000090932709809326090E942A3221E1E22E01
:104A100029E0F22ED3E087E0982E9D0ECC24CA9494
:104A2000CD0E96E0D92EDD0E8701C4E05801F801C5
:104A30008081882341F0292D43E14C0F6C2D8FEFAD
:104A40008C0F0E948B31F8018081823039F42D2D3A
:104A500042E14C0F6D2F8C2F0E94BB310F5F1F4F17
:104A6000F5018081833039F42D2D42E14C0F6D2FFB
:104A70008C2F0E94B732C75EC138C1F6D65FF5E011
:104A8000EF0EF11CD13239F6609123098091210992
:104A900022E0260F42E0480F0E948B318091920362
:104AA000880F45E1480F2FE36CE30E948B31DF91C3
:104AB000CF911F910F91FF90EF90DF90CF90BF901B
:104AC000AF909F90CEC60E94A4340E948768811147
:104AD0000AC00E94F85D60E080E00E94DC6661E050
:104AE00080E00E94DC660E9485638DE792E29093ED
:104AF0008A038093890360E070E088E01DDA44D97E
:104B0000DC01CB0188589341A109B10980936D0361
:104B100090936E03A0936F03B09370030895CF92A8
:104B2000DF92EF92FF920F931F93CF93DF93CDB756
:104B3000DEB768970FB6F894DEBF0FBECDBFBFD605
:104B4000882309F474C10E94753482B382FB9927CB
:104B500090F981E089279091110E981759F0909162
:104B6000B50F992321F091509093B50F06C0809313
:104B7000110E03C088E28093B50F9091810380915C
:104B80008203992341F082508093820381110BC0EC
:104B90001092810308C08E5F809382038E3719F4D0
:104BA00081E0809381030E94E1B8882309F477C0F3
:104BB0008E010F5F1F4F88E1F80111928A95E9F786
:104BC0006DEE74E0C8010F9472330E942A326DEDCD
:104BD00074E08AE00E942D300E94E8B890E0FC0169
:104BE0003197EA30F10508F046C08827EA56FF4FB2
:104BF0008F4F0D94152F61ED74E084E10E942D30EC
:104C00006CEC74E03AC06CEB74E084E10E942D30EF
:104C100067EB74E032C06AEA74E084E10E942D30F0
:104C200065EA74E02AC066E974E084E10E942D30F0
:104C300061E974E022C061E874E084E10E942D30F3
:104C40006CE774E01AC06DE674E084E10E942D30D8
:104C500068E674E012C063E574E084E10E942D30E0
:104C60006EE474E00AC06AE374E084E10E942D30CF
:104C700065E374E002C06DE274E0C8010F94533341
:104C800066E274E088E20E942D30B80182E3F3D737
:104C90008091820360E8681B482F16D630C074D814
:104CA00000916D0310916E0320916F03309170039A
:104CB000DC01CB01801B910BA20BB30B8838934115
:104CC000A105B105F0F480916C0381110AC00E9426
:104CD0002A3261E174E084E10E942D3081E080930A
:104CE0006C038091B30D8350833048F44DD86093AA
:104CF0006D0370936E0380936F0390937003B1D52F
:104D000096C010926C032DEC3CEC4CE45DE360919A
:104D1000C5187091C6188091C7189091C8180F9443
:104D2000CB2D6B017C0123E333E343E75FE3609129
:104D30001E0270911F0280912002909121020F9417
:104D4000CB2D9B01AC01C701B6010F941D2A6093C6
:104D50001E0270931F0280932002909321022DEC7B
:104D60003CEC4CE45DE36091C9187091CA188091E5
:104D7000CB189091CC180F94CB2D6B017C0123E3C1
:104D800033E343E75FE36091220270912302809155
:104D90002402909125020F94CB2D9B01AC01C701F9
:104DA000B6010F941D2A6093220270932302809310
:104DB0002402909325022DEC3CEC4CE45DE36091E1
:104DC000BF187091C0188091C1189091C2180F94AB
:104DD000CB2D6B017C0123E333E343E75FE3609179
:104DE0001A0270911B0280911C0290911D020F9477
:104DF000CB2D9B01AC01C701B6010F941D2A609316
:104E00001A0270931B0280931C0290931D02E09182
:104E10008903F0918A031995E0918503F091860347
:104E2000309729F08091B30D8F3F09F0199568965E
:104E30000FB6F894DEBF0FBECDBFDF91CF911F91AB
:104E40000F91FF90EF90DF90CF900895A6EDB8E11D
:104E500011961C921E92E4EDF8E1108213961C92BA
:104E60001E92129711821092D3181092D21810929B
:104E7000D1181092DF0D08950C944234FF920F93D5
:104E80001F93CF93DF938C01EB01F42E10928003DC
:104E900010928103109282034CE360E380E314D507
:104EA000F1100E940D3410938A0300938903D0936C
:104EB0009303C0939203DF91CF911F910F91FF90C5
:104EC00008952091890330918A03309388032093B9
:104ED00087032091920330919303309384032093AE
:104EE00083031092800341E0C9CFEF92FF920F93AA
:104EF0001F93CF93DF937C018B01EA0120919203F2
:104F00003091930328388FEF3807A9F037FF06C098
:104F1000285E3F4F30939303209392032091920396
:104F2000309193032831310534F028513109309301
:104F30009303209392030E942A324EE265E080E4BC
:104F40000E943A3142E36CE783E00E941D31809178
:104F500092039091930307960F9790F42BE24BE303
:104F600067E085E00E948B312AE24AE368E086E050
:104F70000E94B732A70166E181E20E94B83005C005
:104F8000A70166E181E20E945330809192039091E3
:104F900093030897089790F42BE24BE767E085E4CA
:104FA0000E948B312AE24AE768E086E40E94B73229
:104FB000A80166E181E60E94B83005C0A80166E15B
:104FC00081E60E945330209739F1809192039091AD
:104FD000930340970897B0F42DE34AE765E385E033
:104FE0000E948B312CE349E766E386E00E94B732EA
:104FF000BE0186E3DF91CF911F910F91FF90EF905B
:105000000C944030BE0186E3DF91CF911F910F9148
:10501000FF90EF900C942D30DF91CF911F910F9165
:10502000FF90EF9008950E942A3243E36CE783E0FB
:105030000C941D310F931F93CF93DF931F921F92F8
:10504000CDB7DEB78A0120919203309193032838BF
:105050004FEF3407A9F037FF06C0205F3F4F309372
:105060009303209392032091920330919303203174
:10507000310534F02051310930939303209392038A
:10508000209191032223C1F0209192033091930348
:10509000295F3F4F2F30310578F46115710531F0EC
:1050A00089839A83FB0119959A818981009721F060
:1050B00041E068E87FEF05DFB6DF0115110511F467
:1050C0000CE916E0809192039091930307960F9755
:1050D000F0F42DE34AE765E385E00E948B312CE391
:1050E00049E766E386E00E94B732C8010F9479333E
:1050F000982F990F890FA80166E391E4981B892FD7
:105100000F900F90DF91CF911F910F91B5C6C801FD
:105110000F947933982F990F890FA80166E391E4D2
:10512000981B892F0F900F90DF91CF911F910F91B6
:10513000C0C5AF92BF92CF92DF92EF92FF920F93D2
:105140001F93CF93DF936C01EA015901A091920361
:10515000B0919303A8388FEFB80799F0B7FF05C057
:105160005096B0939303A0939203809192039091F1
:105170009303803191052CF0409790939303809393
:10518000920380919103882339F180919203909149
:1051900093039C01295F3F4F2F30310568F461155F
:1051A000710511F0FB011995C114D104A9F041E07A
:1051B00068E87FEFC6010FC00897089768F40115EB
:1051C000110511F0F8011995A114B10429F041E07D
:1051D00068E87FEFC50175DE26DF8091920390912C
:1051E000930307960F97C8F42DE34EE365E385E03C
:1051F0000E948B312CE34DE366E386E00E94B732D8
:10520000CE010F947933982F990F890FAE0166E381
:1052100093E2981B892F30D60BC0CE010F947933BF
:10522000982F880F980FAE0166E383E2891B41D562
:1052300080919203909193030897089710F52DE3BE
:105240004AE765E382E40E948B312CE349E766E399
:1052500083E40E94B732C7010F947933982F990FD6
:10526000890FA70166E39FE5981B892FDF91CF91F6
:105270001F910F91FF90EF90DF90CF90BF90AF9074
:10528000FBC5C7010F947933982F880F980FA7019A
:1052900066E38FE5891BDF91CF911F910F91FF90FE
:1052A000EF90DF90CF90BF90AF9003C5EF92FF9249
:1052B0001F93CF93DF93C82F2FE24CE767E283E081
:1052C0000E948B31D0E0219714E08CE0E82EF12C85
:1052D000CF3F8FEFD807B9F01D37A9F0CE01B70146
:1052E0000F94C42EAC01453051051CF4475D69E2B2
:1052F00005C08A3028F464E2640F4DE2812FBAD7EA
:105300001F5F2197E5CFDF91CF911F91FF90EF9025
:1053100008954F925F926F927F928F929F92AF9279
:10532000BF92CF92DF92EF92FF920F931F93CF9392
:10533000DF93709191037111D0C0E0919203F091CD
:105340009303E838FF4F21F41092930310929203D5
:10535000A0919203B0919303A62E062E000CBB08D9
:10536000B7FF0BC0F501EE0FFF1FEE0FFF1FEA0F97
:10537000FB1FF0939303E0939203E0919203F0916B
:105380009303D501AA0FBB1FAA0FBB1FEA17FB0788
:105390004CF074E06702E019F1091124F0939303D3
:1053A000E0939203C0919203D0919303D7FD23968B
:1053B00089016A017C01D595C795D595C7957C2E45
:1053C0000E942A3240917103509172039E0133274B
:1053D00063E0220F331F6A95E1F72F503109241B38
:1053E000350BC9019595879595958795840F951FE0
:1053F0001216130614F4019608C0232B29F4909377
:1054000072038093710309C0019790937203809394
:1054100071031092810310928203A0917103B091E5
:1054200072038A2F877093E0B695A7959A95E1F756
:105430009BE3692E681A9BE0892E881A9A2E892D83
:1054400090E08A159B05CCF4892DF60119952C0165
:10545000FC01148A97100DC027E0280D4CE76FEF70
:10546000680D83E00E94B732A201682D84E015D355
:1054700004C0AC01682D84E02ED29394F8E08F0E26
:105480008610DDCF28E04CE760E083E00E94B73271
:105490002FE34CE761E383E0E8D729E04CE769E0DC
:1054A00083E0E3D742E36CE783E0C7D6B70181E04E
:1054B000E7D58C2FF8011995DF91CF911F910F91AE
:1054C000FF90EF90DF90CF90BF90AF909F908F9024
:1054D0007F906F905F904F90C4C1DF91CF911F91EB
:1054E0000F91FF90EF90DF90CF90BF90AF909F9083
:1054F0008F907F906F905F904F900895EF92FF9202
:105500000F93CF93DF93CDB7DEB766970FB6F894BE
:10551000DEBF0FBECDBF80917703909178032091BD
:105520009203309193032817390724F4909393033F
:10553000809392038091750390917603209192035A
:10554000309193038217930724F4909393038093ED
:10555000920380917903813041F4E0917A03F091D4
:105560007B038091920380838EC0823059F4E09156
:105570007A03F0917B03809192039091930391833E
:10558000808381C08330A9F4E0907A03F0907B039C
:105590006091920370919303072E000C880B990B76
:1055A0000F94982B20E030E048EC52E40F94FD2A51
:1055B00065C0843089F4E0917A03F0917B03809197
:1055C000920390919303092E000CAA0BBB0B8083CE
:1055D0009183A283B38357C08530A1F4E0917A030D
:1055E000F0917B0320919203309193034FEF429F00
:1055F000C001439F900D112464E670E00F94C42E07
:10560000608341C0863099F4E0907A03F0907B0388
:105610006091920370919303072E000C880B990BF5
:105620000F94982B20E030E040E752E414C087301C
:10563000A9F4E0907A03F0907B036091920370915B
:105640009303072E000C880B990B0F94982B20E0E6
:1056500030E048EC52E40F94CB2D10C0883099F420
:10566000E0907A03F0907B03609192037091930332
:10567000072E000C880B990B0F94982BF701608371
:10568000718382839383CFDC60917E0370917F036B
:1056900084E1E3D420917903809192039091930364
:1056A000E0907C03F0907D03233099F4BC01990FC6
:1056B000880B990B0F94982B20E030E048EC52E4D3
:1056C0000F94FD2A9701AE014F5F5F4F0E94223772
:1056D00009C000E020E030E0A701BE016F5F7F4F0E
:1056E0000E946735BE016F5F7F4F8EE1C4D265E9CE
:1056F00076E0CE0101960F94723320917903E09009
:105700007C03F0907D0380917303909174032330A8
:1057100099F4BC01990F880B990B0F94982B20E0FA
:1057200030E048EC52E40F94FD2A9701AE01495F46
:105730005F4F0E94223709C000E020E030E0A7015F
:10574000BE01695F7F4F0E946735BE016F5F7F4F6B
:1057500086E391D286D080919103882351F06091A5
:1057600083037091840341E08091870390918803C3
:10577000A8DB66960FB6F894DEBF0FBECDBFDF91F3
:10578000CF910F91FF90EF9008959091BC0097FFFB
:10579000FCCF8093BB0084E88093BC000895809187
:1057A000BC0087FFFCCF84E98093BC0008951F9361
:1057B000CF93DF931F92CDB7DEB7182F84EA809383
:1057C000BC0080EC6983E1DF812FDFDF6981862FF8
:1057D000DCDF0F90DF91CF911F91E1CF1F920F92ED
:1057E0000FB60F9211240BB60F922F933F934F9346
:1057F0005F936F937F938F939F93AF93BF93EF9339
:10580000FF938091950390919603811524E0920770
:1058100011F4C5DF13C0FC01E656FC4F8081B5DFF3
:105820008091BC0081608093BC0080919503909131
:10583000960301969093960380939503FF91EF91C1
:10584000BF91AF919F918F917F916F915F914F9198
:105850003F912F910F900BBE0F900FBE0F901F9096
:1058600018956091990382E0A2DF6091980383E02C
:105870009EDF6091970384E09ADF84EA8093BC0006
:1058800088E783DF80E081DF80E07FDF80E17DDF0C
:1058900080EB7BDF8091BC0087FFFCCF84EA8093A4
:1058A000BC0088E772DF80E470DF109296031092EC
:1058B00095038091BC0081608093BC000895809125
:1058C000BC0080958170089580939903609398033C
:1058D000409397030895DF92EF92FF920F931F93E7
:1058E000CF93DF93962F969596959695A82FB0E037
:1058F00080E8989FA00DB11D11249D0126563C4FB4
:10590000A65EBB4F677078E0761BE901249615E030
:10591000FA01E080EE2009F4B8C0F12CE0E2EE1AC2
:10592000F1081E9DC0011F9D900D11248654994FB2
:10593000FC01F490062E01C0FF0C0A94EAF7F9016D
:10594000E080FE28F0827E01F3E0EF1AF108FC010E
:105950003196E4910E2F062E01C0000F0A94EAF74B
:10596000F701D0800D2900837E01F2E0EF1AF108E3
:10597000FC013296E4910E2F062E01C0000F0A940E
:10598000EAF7F701D0800D290083FC013396E491FA
:105990000E2F062E01C0000F0A94EAF7FE01D290E6
:1059A0000D290083FC013496E491062E01C0EE0F10
:1059B0000A94EAF78881E82BE8832A5F3F4F662341
:1059C00009F45FC0FA01E080F12CF0E2EF1AF1086F
:1059D0001E9DC0011F9D900D11248654994FFC01FE
:1059E0000491E02FF0E0072E02C0F595E7950A94A8
:1059F000E2F7FC91EF2BEC93FC013196E491F0E09F
:105A0000072E02C0F595E7950A94E2F71196FC91EE
:105A10001197EF2B1196EC931197FC013296E491BC
:105A2000F0E0072E02C0F595E7950A94E2F712968A
:105A3000FC911297EF2B1296EC931297FC01339680
:105A4000E491F0E0072E02C0F595E7950A94E2F79D
:105A50001396FC911397EF2B1396EC931397FC017D
:105A60003496E491F0E0072E02C0F595E7950A948C
:105A7000E2F714968C911497E82B1496EC931497F4
:105A800016964F5F5F4F269643CFDF91CF911F91C0
:105A90000F91FF90EF90DF900895DF92EF92FF92C9
:105AA0000F931F93CF93DF93962F96959695969588
:105AB000A82FB0E080E8989FA00DB11D11249D0192
:105AC00026563C4FA65EBB4F677078E0761BE90117
:105AD000249615E0FA01E080EE2009F4C4C0F12C10
