:100000000C948A270C94682A0C94932A0C94BE2A88
:100010000C94E92A0C94142B0C943F2B0C946A2B0F
:100020000C94952B0C94BB270C94BB270C94BB27EA
:100030000C94BB270C94BB270C94BB270C94BB27B8
:100040000C94BB270D94FC880C94BB270C94BB2705
:100050000C94BB270C94BB270D9406A00C94BD27D1
:100060000C94BB270D9471710C94BB270C94BB2787
:100070000C94BB270C94BB270C94BB270C94BB2778
:100080000C94BB270C94BB270C94BB270C94BB2768
:100090000C94BB270C94BB270C94BB270C942036E4
:1000A0000C94BB270C94BB270C94BB270C94BB2748
:1000B0000C94BB270C94BB270C94BB270C94BB2738
:1000C0000C94BB270C94BB270C94BB270C94BB2728
:1000D0000C94BB270C94BB270C94BB270C94BB2718
:1000E0000C94BB2706290B2910291A2924299D299C
:1000F0002E2936293E29482952295C296B29752940
:100100009D297F2989299329C129C429B329B72980
:10011000BD29FB29C829CC29D229D629DA29E029E9
:10012000E429E829FB29EE29F229F629C32DC32D5C
:10013000CB2DD32DE32DEB2DF32DFB2D032EDB2D1E
:10014000B2014001560176013801420130016801D7
:100150005001A4013001660164015A01AE0162013F
:1001600048013001AA01900132013001B0017C0147
:100170009201A80154014C014A01800178018201D9
:100180003E013A015801A6019A0172019401300121
:1001900030013001300130013001300130013001D7
:1001A00030013001300130013001300130013001C7
:1001B00030013001300130013001300130013001B7
:1001C00030013001300130013001300130013001A7
:1001D0003001300130013001300130013001300197
:1001E0003001300130013001300130013001300187
:1001F0003001300130013001300130013001300177
:1002000030013001300130012C01B601084AD73BE2
:100210003BCE016E84BCBFFDC12F3D6C74319ABDD5
:1002200056833DDA3D00C77F11BED9E4BB4C3E91F9
:100230006BAAAABE000000803F05A84CCDB2D44EE8
:10024000B93836A9020C50B9918688083CA6AAAAEA
:100250002ABE000000803F000D94C5A90D94FC0546
:100260000D9412AA0D9449AA0D940F110D94B40F78
:100270000D945CAA0D94AFA90D9449000D94A5A905
:100280000D946EA90D945EAA0D942A050D94D31DAC
:100290000D9472AA0D9499A90D9497A90D94AB058C
:1002A0000D9462AA0D9406060D9495A90D9458AA72
:1002B0000D94B1A90D942BAA0D94F0050D949605FB
:1002C0000D9400080D9470AA0D946CAA0D9468AA60
:1002D0000D9460AA0D94E2010D9486070D941E05FD
:1002E0000D9430050D94BBA90D94E1350D945AAAD7
:1002F0000D94A1A90D9498370D9483A90D943A718A
:100300000D949FA90D94A3A90D947A0F0D944607FF
:100310000D9459070D94DF0E0D94810F0D94660214
:100320000D944EAA0D9485A90D94BDA90D94470670
:100330000D94E1390D94B5A90D94F6050D9424059D
:100340000D94DD350D94A1370D9465AA0D94B3A9D4
:100350000D9493A90D9438AA0D94E5350D946EAAC9
:100360000D9453AA0D946BA90D94B4390D94E0A982
:100370000D94327100000A0B02090C0D0E080703E0
:100380000401000000000000000000000000000068
:10039000000000000000000000000000000000005D
:1003A000121110000000000000000000000000001A
:1003B00000000000000000000000010210202008E2
:1003C00008102040102040800201020108040201B0
:1003D000010204081020408080402010080402011F
:1003E0008004020180402010080402010804020178
:1003F00001020408102040800102040810204080FF
:1004000005050505070508080808020202020A0A90
:1004100008080404040401010101010101010303AE
:10042000030303030303040707070C0C0C0C0C0C59
:100430000C0C0202020206060606060606060B0B56
:100440000B0B0B0B0B0B00002200250028002B00D0
:100450002E003100340002010000050108010B01EB
:1004600000002100240027002A002D003000330066
:1004700001010000040107010A012062797465731B
:10048000206672656500476F20746F3A007375705F
:10049000706F727400455230370058206F722059C7
:1004A0002073776974636820737475636B004552B9
:1004B00030370058206F7220592073776974636851
:1004C0002062726F6B656E0045523036005A2073A1
:1004D000776974636820737475636B0045523035B7
:1004E000005A207377697463682062726F6B656E5F
:1004F0000045523034005361666574792063697237
:1005000063756974004552303300486561746572E3
:10051000206572726F7200455230320054656D7002
:100520002073656E736F722042454400455230312E
:100530000054656D702073656E736F720045525282
:100540004F52202D2053544F5050454400756C7429
:10055000696D616B65722E636F6D2F0054696E6BF0
:1005600065725F4D61726B325F31372E303900201A
:100570002000000000000000000080C07098ECE641
:10058000F6F6E6EC9870C0000000000000000000E5
:1005900000000000000080E038CEF7F9FEFFFF0306
:1005A000010103FFFFFEFDF3CE38E0C000000000B4
:1005B0000080E0709CE7F9FEFFFFFFFFFFFFFF3CBC
:1005C00018183CFFFFFFFFFFFFFFFCFBE79C30E03C
:1005D00080071F30276F6F6F6F6F6F6F6F6F6F6F59
:1005E0006E6E6F6F6F6F6F6F6F6F6F6F6F27301FF4
:1005F000070908E38191B1FFB09080E007081C2251
:10060000414141221C07081C3E7F7F7F3E1C07089A
:100610007F6E6C7872674207081C224A524C201F7A
:1006200007087F7F415F5F7F7F07087F7F515545C8
:100630007F7F08080982F88484F8820907086070BF
:10064000381E09080405082A2A2A2A2A0708103809
:100650007C1010101E07081C22404F40221C050869
:100660003E3E003E3E05087F7F3E1C080708492AA3
:100670001C7F1C2A490B0808080808080808083EBF
:100680001C080B08081C3E0808080808080808078A
:1006900008087C466F467C080608081422081422C5
:1006A0000608221408221408050826340816320702
:1006B000087F5D4941495D7F07081C3E7F71773E99
:1006C0001C07081C22414F49221C07080708137FFA
:1006D0001308070708404A55404A55400508609EE0
:1006E000819E60801506060606FEFEFEFEFC0000EA
:1006F0000000000000FCFEFEFEFC0000000EFEFEFE
:10070000FEFE0000E0FCFEFEFCE0E0000000CECEBD
:10071000CE000000C0C0C0C0C0C08000000000000B
:100720000080C0C0800000000000008080C0C0C009
:10073000C0C0C0C080800000000006FEFEFEFE00BB
:1007400000000080C0C0C00000000000008080C029
:10075000C0C080808000000000C0C0C0C00080C059
:10076000C0C0C08000000000007FFFFFFFFF8000CE
:100770000000000080FFFFFFFFFF00000000FFFF00
:10078000FFFF000000FFFFFFFF0000000000FFFF71
:10079000FF00000081F1FFFF3F0F3FFFFCF0F0FC86
:1007A000FF3F0F3FFFFEF880000000C1E1F1F17153
:1007B00031010183FFFFFFFC000000FFFFFFFF008E
:1007C0000C3EFFFFF7C301000000FCFEFF87031192
:1007D0003131333F3F3F1E000001FFFFFFFF0703A2
:1007E00001010101000000000000010307070F0FD5
:1007F0000F0F0F0F0F0707070F0F06000000070F5F
:100800000F07000000070F0F0700000000000F0F88
:100810000F0000060F0F070100000001070F0F0770
:100820000100000001070F0F06000003070F0F0E65
:100830000E060703070F0F07000000070F0F070042
:10084000000000030F0F0F060000000307070F0E44
:100850000E0E0E0E0E06000000000F0F0F0F000010
:100860000000000000432000432F004865617469C8
:100870006E67207072696E7468656164005072659D
:10088000763A20003C2052455455524E0043414E8A
:1008900043454C002073656300206D696E0020683D
:1008A0006F75720020686F7572730011150A000071
:1008B00019151200000609090600000000000000DA
:1008C000005F00000007000700147F147F14242A33
:1008D0007F2A12231308646236495522500005030B
:1008E0000000001C2241000041221C00082A1C2A92
:1008F0000808083E080800503000000808080808EA
:10090000006060000020100804023E5149453E008E
:10091000427F400042615149462141454B31181404
:10092000127F1027454545393C4A49493001710934
:1009300005033649494936064949291E003636001D
:100940000000563600000008142241141414141438
:1009500041221408000201510906324979413E7EC4
:100960001111117E7F494949363E414141227F4163
:1009700041221C7F494949417F090901013E41410A
:1009800051327F0808087F00417F41002040413FED
:10099000017F081422417F404040407F0204027FD3
:1009A0007F0408107F3E4141413E7F090909063E10
:1009B0004151215E7F0919294646494949310101C2
:1009C0007F01013F4040403F1F2040201F7F2018F3
:1009D000207F6314081463030478040361514945BC
:1009E0004300007F4141020408102041417F000084
:1009F0000402010204404040404000010204002083
:100A0000545454787F48444438384444442038444B
:100A100044487F3854545418087E0901020814547D
:100A2000543C7F0804047800447D40002040443D4D
:100A300000007F10284400417F40007C04180478A7
:100A40007C0804047838444444387C14141408089E
:100A50001414187C7C080404084854545420043F9F
:100A60004440203C4040207C1C2040201C3C403026
:100A7000403C44281028440C5050503C4464544C92
:100A800044000836410000007F00000041360800A5
:100A900008082A1C08081C2A08084731204625692E
:100AA000205A256920582569205925690047323880
:100AB000205A30205830205930006275696C6470BB
:100AC0006C6174652E006F662061646A7573746969
:100AD0006E6720796F7572007468726F7567682031
:100AE0007468652070726F6365737300492077695D
:100AF0006C6C20677569646520796F7500434F4E93
:100B000054494E55450043414E43454C00746F20B7
:100B10007072696E742069742100616E6420707255
:100B20006573732074686520627574746F6E006FEE
:100B30006E207468652053442D63617264005365B0
:100B40006C6563742061207072696E742066696CD4
:100B5000650032312F3231004C455427532050521A
:100B6000494E540052656164696E67206361726426
:100B70002E2E2E0032312F323100796F75722055B2
:100B80006C74696D616B6572322E2E2E0074686113
:100B9000742063616D65207769746800506C6561CD
:100BA000736520696E736572742053442D6361729E
:100BB000640032312F3231006D616B65206120336A
:100BC00044205072696E74210049276D207265615E
:100BD0006479206C657427730032302F3231004104
:100BE000524520594F552052454144593F006672A5
:100BF0006F6D206E6F7A7A6C652E2E2E006D61748B
:100C0000657269616C2065786974730050757368EA
:100C100020627574746F6E207768656E0031392FAD
:100C2000323100434F4E54494E5545004C6F61647C
:100C3000696E67206D6174657269616C2E2E2E007D
:100C400031382F32310061626F766520746865201B
:100C50006172726F772E00796F757220556C7469AE
:100C60006D616B6572322C0066726F6D2074686501
:100C70002072656172206F6600496E736572742020
:100C80006E6577206D6174657269616C0031372F14
:100C9000323100434F4E54494E5545006D617465E5
:100CA0007269616C206C6F6164696E670070726953
:100CB0006E74686561642068656174696E6720663A
:100CC0006F7200506C6561736520776169742C00E8
:100CD00031362F32310053656C656374207468655A
:100CE000206D6174657269616C006974206973209C
:100CF0007573696E672E006F66206D617465726929
:100D0000616C006B6E6F77732077686174206B691C
:100D10006E64004E6F7720796F757220556C746920
:100D20006D616B6572320031352F323100434F4EA9
:100D300054494E554500697320746869732072697F
:100D40006768743F00596F75206861766520636835
:100D50006F73656E0031342F323100594553004EA8
:100D60004F00206173206D6174657269616C2C00A5
:100D700031332F3231004D4154455249414C0055D9
:100D80006C74696D616B6572322E00696E73657289
:100D90007420696E2074686973006D61746572698E
:100DA000616C20796F752077696C6C004E65787482
:100DB0002C2073656C656374207468650031322F74
:100DC000323100524541445900746F20696E736599
:100DD0007274206D6174657269616C2E007468654F
:100DE000206E657874207374657020697300746870
:100DF00065206275696C64706C617465004E6F7714
:100E00002074686174207765206C6576656C656414
:100E10000031312F323100434F4E54494E55450079
:100E200074686520726967687420636F726E65729A
:100E30002E2E2E00526570656174207468697320CF
:100E4000666F720031302F323100434F4E54494E9D
:100E5000554500444F4E4500746865206C656674C6
:100E600020636F726E65722E2E2E00526570656162
:100E700074207468697320666F7200392F323100F4
:100E8000434F4E54494E5545006269742072657354
:100E9000697374616E63652E00756E74696C207978
:100EA0006F75206665656C2061006275696C6470A1
:100EB0006C61746520616E64206E6F7A7A6C650077
:100EC000536C696465206120706170657220626591
:100ED000747765656E00382F323100434F4E5449A8
:100EE0004E554500434F4E54494E5545004731201D
:100EF000462569205A30004731204625692058256B
:100F0000692059256900473120462569205A350056
:100F1000746865206275696C64706C617465206CBE
:100F20006576656C2E00706170657220746F206646
:100F3000696E652D74756E65006E6F7720757365CB
:100F40002061207368656574206F66005265706566
:100F50006174207468697320737465702C206275E5
:100F60007400372F323100434F4E54494E554500DF
:100F700066726F6D20746865206275696C64706C50
:100F80006174652E0069732061206D696C6C696DF8
:100F9000657465722061776179007363726577208B
:100FA00074696C6C20746865206E6F7A7A6C650069
:100FB0005475726E207269676874206275696C641A
:100FC000706C61746500362F323100434F4E5449C6
:100FD0004E554500473120462569205A300047319B
:100FE0002046256920582569205925690047312068
:100FF0004625692058256920592569004731204632
:101000002569205A350066726F6D2074686520620C
:1010100075696C64706C6174652E00697320612061
:101020006D696C6C696D65746572206177617900BA
:1010300073637265772074696C6C20746865206EC8
:101040006F7A7A6C65005475726E206C65667420D8
:101050006275696C64706C61746500352F323100A3
:10106000434F4E54494E554500473120462569208F
:101070005A300047312046256920582569205925D6
:10108000690047312046256920582569205925697E
:1010900000473120462569205A350066726F6D2061
:1010A000746865206275696C64706C6174652E008B
:1010B00061206D696C6C696D657465722061776122
:1010C0007900756E74696C20746865206E6F7A7A29
:1010D0006C6520697300526F746174652074686573
:1010E00020627574746F6E00342F323100434F4E9E
:1010F00054494E554500434F4E54494E55450047BF
:101100003120462569205A2569205825692059250E
:101110006900676F696E6720746F20646F20746860
:101120006174206E6F772E0061646A7573746D65EB
:101130006E74732C20776520617265007765206E70
:1011400065656420746F20646F20736F6D65004166
:1011500066746572207472616E73706F72746174FC
:10116000696F6E00332F323100434F4E54494E5554
:101170004500473120462569205A256900612066CF
:10118000697273742072756E2077697A6172642E49
:101190000077616C6B20796F75207468726F75676A
:1011A000680066697273742073746172747570205C
:1011B000492077696C6C00426563617573652074C2
:1011C0006869732069732074686500322F323100BA
:1011D000434F4E54494E554500627574746F6E20EE
:1011E000746F20636F6E74696E756500556C7469F9
:1011F0006D616B6572212050726573732074686530
:101200000073746172747570206F6620796F7572E7
:101210000057656C636F6D6520746F20746865207E
:10122000666972737400312F323100434F4E544956
:101230004E5545004300432F00436C69636B207497
:101240006F2072657475726E004275696C64706CA3
:101250006174652074656D702E3A00457870657212
:10126000742066756E6374696F6E730041646A758D
:101270007374206275696C64706C61746500536589
:10128000742066616E207370656564004D6F7665CD
:10129000206D6174657269616C00496E736572746A
:1012A000206D6174657269616C00526169736520BB
:1012B0006275696C64706C617465004C6F776572FF
:1012C000206275696C64706C61746500486F6D654F
:1012D0002068656164004865617475702062756995
:1012E0006C64706C61746500486561747570206E23
:1012F0006F7A7A6C65004475616C204578747275FC
:1013000073696F6E00507265666572656E636573B2
:10131000002500432F004300432F00432000432FAC
:10132000004300466163746F72792072657365745F
:101330000052756E74696D65207374617473005624
:10134000657273696F6E00506F77657220627564A5
:10135000676574005072696E742061726561004D3A
:101360006F74696F6E2073657474696E6773005271
:10137000657472616374696F6E2073657474696EED
:1013800067730054656D7065726174757265206372
:101390006F6E74726F6C0048656174657220746959
:1013A0006D656F75740053637265656E20636F6E53
:1013B000747261737400536C6565702074696D6537
:1013C00072005363726F6C6C2066696C656E616D40
:1013D000657300436C69636B20736F756E64004CBA
:1013E00045442073657474696E6773005573657244
:1013F00020696E746572666163650054696E6B6521
:10140000725F4D61726B325F31372E3039006F661B
:10141000660073006F6666202F20006D696E202FB6
:101420002000250044697361626C656400456E614B
:10143000626C6564005374616E6461726400536829
:101440006F7274207469636B004F666600250053E9
:1014500074616E64617264204D6F646500476565F8
:101460006B204D6F6465004765656B204D6F64654B
:10147000003E005374616E64617264204D6F646558
:10148000003E005573657220696E74657266616313
:10149000650020476C6F77207768656E20646F6EFB
:1014A0006500204F6E207768696C65207072696EE8
:1014B00074696E670020416C77617973204F6666AE
:1014C0000020416C77617973204F6E00427269672A
:1014D00068746E6573730025002500427269676841
:1014E000746E657373004C454400203F3F3F004FCE
:1014F0006666003E0053686F7274207469636B0007
:101500003E005374616E64617264206265657000B0
:101510003E00436C69636B20736F756E64005363A8
:10152000726F6C6C2066696C656E616D6573003EF0
:10153000004E6F207363726F6C6C696E67003E00C3
:101540005363726F6C6C2066696C656E616D657358
:10155000002500436C69636B20746F20726574759D
:10156000726E0053637265656E20636F6E74726194
:10157000737400496E7665727420617869730041F6
:101580007869732073746570732F6D6D004D6F747F
:101590006F722043757272656E74004D61782E20F3
:1015A0006178697320737065656400416363656C7D
:1015B00065726174696F6E004D4F54494F4E00540F
:1015C000696E6B65725F4D61726B325F31372E30C1
:1015D00039004F63742020372032303137203138C2
:1015E0003A32343A35360052657475726E006D00C9
:1015F000204D61743A003A005072696E74696E67EA
:101600003A003A004D616368696E65206F6E20662E
:101610006F723A0052657475726E00746F20646563
:101620006661756C743F00526573657420657665FC
:1016300072797468696E6700594553004E4F0050C7
:101640005245464552454E434553004300432F0003
:10165000436C69636B20746F2072657475726E00E1
:101660004E6F7A7A6C652074656D70657261747501
:1016700072653A00250046616E20737065656400EE
:101680004731205A343000414456414E43454400CE
:10169000432F004300436C69636B20746F207265B5
:1016A0007475726E00526F7461746520746F20657A
:1016B000787472756465004E6F7A7A6C6520746513
:1016C0006D70657261747572653A004255494C449B
:1016D0002D7C504C41544500414456414E434544B5
:1016E0000052455455524E0043504500435045006A
:1016F00041425300504C4100435045004350450087
:1017000055504554004350450041425300504C4110
:1017100000496D706F72742066726F6D20534400C3
:101720004578706F727420746F2053440043757352
:10173000746F6D697A65004C6F61647320616C6CC5
:10174000206D6174657269616C73005361766573B5
:1017500020616C6C206D6174657269616C73004D01
:101760006F64696679207468652073657474696E46
:10177000677300250046616E3A2000430043002550
:1017800000466C6F773A006D6D0053746F72652080
:1017900061732070726573657400466C6F772025E5
:1017A0000046616E004469616D657465720048654C
:1017B00061746564206275696C64706C6174650045
:1017C00054656D7065726174757265002500250041
:1017D0006D6D00430043200043200054656D70652B
:1017E0007261747572653A20004300430054656D60
:1017F0007065726174757265004D4154455249417E
:101800004C004E65772070726573657400505245C8
:10181000534554530025004D6174657269616C2015
:10182000666C6F7700250046616E20737065656495
:10183000006D6D004D6174657269616C2044696171
:101840006D657465720043004275696C64706C610B
:1018500074652054656D702E004D415445524941C8
:101860004C00696E204D4154455249414C2E54580C
:101870005400746F2074686520534420636172645F
:10188000005361766564206D6174657269616C7383
:10189000004F6B000A006469616D657465723D00FC
:1018A0000A00666C6F773D000A0066616E5F7370B8
:1018B0006565643D000A006265645F74656D70650E
:1018C0007261747572653D000A003D0074656D704B
:1018D000657261747572655F000A0074656D70658C
:1018E0007261747572653D000A006E616D653D0040
:1018F0005B6D6174657269616C5D0A00526561645B
:10190000696E6720636172642E2E2E00506C6561D3
:10191000736520696E736572742063617264004E32
:101920006F2053442D43415244210066726F6D2055
:101930007468652053442063617264004C6F616475
:101940006564206D6174657269616C73004F6B0032
:1019500074656D70657261747572655F006469614C
:101960006D6574657200666C6F770066616E5F739B
:1019700070656564006265645F74656D7065726151
:10198000747572650074656D7065726174757265E9
:10199000006E616D65005B6D6174657269616C5D9F
:1019A00000466F756E64206F6E20636172642E0056
:1019B0004E6F206578706F72742066696C65005296
:1019C000656164696E6720636172642E2E2E00501B
:1019D0006C6561736520696E7365727420636172F2
:1019E00064004E6F2053442D434152442100666FE2
:1019F00072206578747275646572203200666F7249
:101A000020657874727564657220310053656C6569
:101A100063746564206D6174657269616C3A004F2E
:101A20004B004D4154455249414C00290028006368
:101A30006F6D6573206F7574206E6F7A7A6C6500B8
:101A4000576169742074696C6C206D61746572698A
:101A5000616C0052454144590043414E43454C009E
:101A6000466F7277617264696E67206D617465722A
:101A700069616C002900280045787472756465728C
:101A800000796F7572206D616368696E65006672BA
:101A90006F6D20746865206261636B736964652093
:101AA0006F660029002800666F7220657874727571
:101AB00064657200496E73657274206E6577206D7F
:101AC0006174657269616C0052454144590043413B
:101AD0004E43454C00666F7220696E73657274697F
:101AE0006F6E0029002800436F6F6C696E67206E6F
:101AF0006F7A7A6C650048656174696E67206E6FF5
:101B00007A7A6C6500250046616E3A2000430043F6
:101B1000002500466C6F773A006D6D004D415445CD
:101B20005249414C0052656D6F7665206D61746558
:101B30007269616C002900280045787472756465CB
:101B4000720052454144590043414E43454C0052B6
:101B50006576657273696E67206D6174657269611F
:101B60006C002900280045787472756465720066FF
:101B70006F72206D6174657269616C2072656D6F42
:101B800076616C0029002800436F6F6C696E6720D6
:101B90006E6F7A7A6C650048656174696E67206E55
:101BA0006F7A7A6C65004348414E4745005345546F
:101BB00054494E47530052455455524E004D383407
:101BC0002058205920450041424F52540041424F75
:101BD00052540054554E450054554E45004D415405
:101BE000455249414C004348414E4745004D415400
:101BF000455249414C004348414E474500524553E8
:101C0000554D457C0050415553494E477C0042415B
:101C1000434B004241434B0054554E450054554EF2
:101C2000450041424F52547C0050415553457C0081
:101C30004D3630312058257520592575205A257587
:101C4000204C257300536C6565702074696D657256
:101C5000004D6F7665206D6174657269616C004C32
:101C60004544204272696768746E657373004578F5
:101C7000747275646572206F666673657400546F64
:101C80006F6C6368616E67652072657472616374FE
:101C9000203200546F6F6C6368616E6765207265F7
:101CA0007472616374203100526574726163746987
:101CB0006F6E004D6174657269616C20666C6F7740
:101CC0002032004D6174657269616C20666C6F77BB
:101CD00020310046616E20636F6E74726F6C004637
:101CE000616E207370656564004275696C64706C28
:101CF0006174652054656D702E005072696E742099
:101D000054656D7065726174757265203200507231
:101D1000696E742054656D706572617475726520AA
:101D200031005370656564002500250025006D6154
:101D3000696E2066616E20616C77617973206F6EC9
:101D40000073657061726174652066616E20636FF7
:101D50006E74726F6C002500432F004300432F0008
:101D60004300432F004300250029002028004300A2
:101D7000432F00436C69636B20746F207265747528
:101D8000726E004275696C64706C617465005465B4
:101D90006D706572617475726500457874727564F2
:101DA0006572206368616E6765206C656E00456EC4
:101DB00064206F66207072696E74206C656E677443
:101DC00068005265747261637420737065656400A5
:101DD00052657472616374206C656E677468006D1F
:101DE0006D006D6D2F736563006D6D006D6D2F73EC
:101DF0006563005265747261637420737065656415
:101E0000006D6D0052657472616374206C656E675D
:101E100074680052455452414354494F4E002500C6
:101E20004272696768746E6573730025004D617452
:101E3000657269616C20666C6F7720320025004DF9
:101E40006174657269616C20666C6F772031002562
:101E50000046616E207370656564002500507269EC
:101E60006E742073706565640054554E45002900FA
:101E70002028004300432F00436C69636B20746F7C
:101E80002072657475726E004E6F7A7A6C652000F0
:101E900054656D7065726174757265005072696E1B
:101EA000742066696E6973686564005072696E7447
:101EB000657220636F6F6C696E6720646F776E0068
:101EC000430043200068006D696E0054696D652011
:101ED000004241434B20544F204D454E5500416236
:101EE0006F7274696E672E2E2E0041626F727420BD
:101EF000746865207072696E743F00594553004ED6
:101F00004F00507265706172696E6720746F207047
:101F100072696E743A0048656174696E6720757005
:101F20002E2E2E0054554E450041424F525400254E
:101F300073207673202573006D6174657269616C1E
:101F40002E00666F72206120646966666572656E38
:101F50007400546869732066696C65206973206336
:101F600072656174656400434F4E54494E55450097
:101F700043414E43454C0054696D65206C65667461
:101F80000054696D65206C65667420756E6B6E6FAC
:101F9000776E00432F00430048656174696E6720C7
:101FA0006275696C64706C61746500432F00432036
:101FB00000432F00430048656174696E67005072EA
:101FC000696E74696E673A0054554E45005041552C
:101FD00053450066726F6D2074686520736C696389
:101FE00065722E0073657474696E67207769746812
:101FF0002073657474696E67006F766572726964C8
:1020000065206D616368696E650054686973206658
:10201000696C652077696C6C00434F4E54494E558E
:10202000450043414E43454C003C204241434B0058
:1020300053442043415244003B464C41564F523A90
:10204000556C746947436F6465003B464C41564F7D
:10205000523A556C746947436F6465004E6F206651
:10206000696C657320666F756E6421004F4B004F7D
:102070004B0052656164696E6720636172642E2E45
:102080002E00506C6561736520696E7365727420F3
:1020900063617264004E6F2053442D4341524421CA
:1020A000004E6F20696E666F20617661696C6162B7
:1020B0006C65002F004E6F7A7A6C6520006D006DA4
:1020C000006D006D004D61742E200068006D696E1A
:1020D0000054696D6520003B4D54595045323A001B
:1020E0003B4E4F5A5A4C455F4449414D4554455229
:1020F000323A003B4D4154455249414C323A003B43
:102100004D545950453A003B4E4F5A5A4C455F4446
:1021100049414D455445523A003B4D415445524981
:10212000414C3A003B54494D453A00466F6C64655A
:1021300072006F66207072696E74696E67206172DA
:102140006561005472696564207072696E74696EAD
:1021500067206F7574004552524F523A00524554F1
:1021600055524E20544F204D41494E00756C7469B4
:102170006D616B65722E636F6D2F4552303800476D
:102180006F20746F3A0072656164696E6720534412
:102190002D6361726421004572726F7220776869E5
:1021A0006C650052455455524E20544F204D4149C4
:1021B0004E00473130004731205A256420462564BF
:1021C000001F001F2F001F004275696C64706C6156
:1021D000746520001F001F2F001F004E6F7A7A6C5D
:1021E0006528322920001F001F2F001F004E6F7A24
:1021F0007A6C6528312920006F6666006F6E004298
:1022000075696C64706C6174653A20006F66660075
:102210006F6E004E6F7A7A6C652832293A20006F13
:102220006666006F6E004E6F7A7A6C652831293AC7
:1022300020004241434B004241434B0052657475BC
:10224000726E20746F206D61696E206D656E750011
:10225000434F4F4C00434F4F4C00436F6F6C206413
:102260006F776E20616C6C005052494E5400505292
:10227000494E54005374617274207072696E740018
:1022800050726568656174001F002F001F002F00E9
:102290004D4154455249414C00535441525400431E
:1022A00048414E4745004D4F56450053455454490B
:1022B0004E475300414456414E4345440050524915
:1022C0004E540050524548454154004D41494E54EA
:1022D000454E414E4345004D4154455249414C0005
:1022E0005052494E540045585452554445527C3141
:1022F0000045585452554445527C3200524554557D
:10230000524E00290041646A757374205A20286E69
:102310006F7A7A6C65200046616E20636F6E74720E
:102320006F6C005072696D652F5769706520706F12
:10233000736974696F6E00446F636B696E672070B8
:102340006F736974696F6E00457874727564657235
:10235000206F666673657400546F6F6C6368616E9E
:1023600067652072657472616374004368616E67AB
:1023700065206578747275646572004475616C20BF
:102380006D6F6465006D61696E2066616E20616CC1
:1023900077617973206F6E00736570617261746527
:1023A0002066616E20636F6E74726F6C006F66667C
:1023B00000656E61626C6564006F666600656E61E3
:1023C000626C656400576970652064657669636551
:1023D0003A005769706520646576696365006F66C9
:1023E0006600656E61626C656400546F6F6C636853
:1023F000616E67653A00546F6F6C6368616E676504
:1024000020736372697074006F666600656E616246
:102410006C6564004475616C206D6F64653A0044BE
:1024200075616C206D6F64650052455455524E00C5
:10243000436C69636B20746F2072657475726E00F3
:1024400053544F52450053746F7265206475616C2C
:10245000206D6F6465004475616C207374617465F0
:10246000004D383420582059006D6D005900646FBC
:10247000636B20706F736974696F6E207900580008
:10248000646F636B20706F736974696F6E2078007E
:1024900043414E43454C0041626F72742066756E35
:1024A0006374696F6E0053544F52450053746F72DA
:1024B0006520646F636B20706F736974696F6E0061
:1024C000446F636B696E6720706F736974696F6EB8
:1024D00000507265706172696E672E2E2E006D6DF0
:1024E000005900646F636B20706F736974696F6E5D
:1024F0002079006D6D005800646F636B20706F73FE
:102500006974696F6E20780052455455524E0043ED
:102510006C69636B20746F2072657475726E004D08
:102520004F5645004D6F76652068656164005354D1
:102530004F52450053746F726520646F636B207057
:102540006F736974696F6E00446F636B696E6720A7
:10255000706F736974696F6E006D6D0059007769F3
:10256000706520706F736974696F6E2079006D6D8E
:102570000058007769706520706F736974696F6EB9
:1025800020780052455455524E00436C69636B20CD
:10259000746F2072657475726E0053544F5245000B
:1025A00053746F7265207769706520706F736974FA
:1025B000696F6E005072696D652F57697065207084
:1025C0006F736974696F6E004475616C206578740F
:1025D000727573696F6E005072696D65004578742D
:1025E0007261207072696D696E6720286D6D2900B7
:1025F0005370656564005265747261637420737012
:1026000065656420286D6D2F7329004C656E00523E
:10261000657472616374206C656E20286D6D29008D
:1026200052455455524E00436C69636B20746F20C1
:1026300072657475726E0053544F52450053746F37
:10264000726520726574726163742076616C756561
:102650007300546F6F6C6368616E67652072657498
:10266000726163740029002800736570617261747F
:10267000652066616E7300736570617261746520B8
:1026800066616E20636F6E74726F6C006D61696E4F
:102690002066616E206F6E006D61696E2066616EEE
:1026A00020616C77617973206F6E005245545552EA
:1026B0004E00436C69636B20746F20726574757291
:1026C0006E0053544F52450053746F72652066611B
:1026D0006E206F7074696F6E730046616E20636F59
:1026E0006E74726F6C006D6D005A005A206F6666D2
:1026F000736574002900280059206F66667365743D
:10270000206C696E65206E6F2E006D6D005900594A
:10271000206F6666736574002900280058206F6674
:1027200066736574206C696E65206E6F2E006D6D2A
:1027300000580058206F6666736574005245545502
:10274000524E00436C69636B20746F207265747520
:10275000726E0053544F52450053746F7265206F70
:10276000666673657473004578747275646572206B
:102770006F6666736574005700457874727564659A
:1027800072203200320057617474616765204578A9
:102790007472756465720057003100457874727503
:1027A0006465720031005761747461676520457813
:1027B0007472756465720057004275696C64706C60
:1027C0006174650057617474616765204275696C56
:1027D00064706C617465005700546F74616C0054D0
:1027E0006F74616C20506F77657220427564676505
:1027F00074004241434B004241434B00436C6963C8
:102800006B20746F2072657475726E0053544F5252
:10281000450053746F7265206F7074696F6E73003A
:10282000506F776572204275646765740042756900
:102830006C64706C6174650045787472756465725F
:1028400020320045787472756465722031004B64E3
:10285000004465726976617469766520636F6566A8
:10286000662E004B6900496E74656772616C206367
:102870006F656666696369656E74004B70005072BF
:102880006F706F7274696F6E616C20636F656666DE
:102890002E004241434B004241434B00436C69636D
:1028A0006B20746F2072657475726E004155544FC1
:1028B00000537461727420504944206175746F74C0
:1028C000756E650053544F52450053746F72652006
:1028D0005049442073657474696E677300504944AD
:1028E0002073657474696E67730028312900457818
:1028F000747275646572004B640044657269766138
:102900007469766520636F6566662E004B690049C1
:102910006E74656772616C20636F65666669636972
:10292000656E74004B700050726F706F7274696FD7
:102930006E616C20636F6566662E004241434B00FA
:102940004241434B00436C69636B20746F20726596
:102950007475726E004155544F0053746172742047
:10296000504944206175746F74756E650053544FFF
:1029700052450053746F726520504944207365744A
:1029800074696E6773005049442073657474696E8E
:102990006773002832290045787472756465720087
:1029A00043414E43454C0054696D656F7574006634
:1029B00061696C65642100504944204175746F74ED
:1029C000756E650054656D70657261747572652011
:1029D000746F6F2068696768006661696C6564215F
:1029E00000504944204175746F74756E65007468B9
:1029F000652073657474696E67732E00596F752056
:102A000063616E2073746F72650066696E697368C6
:102A100065642100504944204175746F74756E657A
:102A200000434F4E54494E5545001F2F001F004292
:102A300075696C64706C6174650045787472756456
:102A40006572001F2F001F002F002E0050494420E8
:102A500074756E696E67004379636C657300747595
:102A60006E696E67206379636C6573001F0054653F
:102A70006D70657261747572650074756E696E67EC
:102A80002074656D706572617475726500424143B2
:102A90004B004241434B00436C69636B20746F20D1
:102AA00072657475726E00535441525400537461D0
:102AB000727420504944206175746F74756E65009E
:102AC0005049442074756E65206F7074696F6E7321
:102AD000004578747275646572004275696C647043
:102AE0006C617465004B6400446572697661746959
:102AF000766520636F6566662E004B6900496E74CB
:102B0000656772616C20636F656666696369656E8F
:102B100074004B700050726F706F7274696F6E61E9
:102B20006C20636F6566662E004275696C642D7C4F
:102B3000706C61746500504944206D6F646500429B
:102B400041434B004241434B00436C69636B20742B
:102B50006F2072657475726E004155544F00537446
:102B600061727420504944206175746F74756E658C
:102B70000053544F52450053746F726520504944BE
:102B80002073657474696E677300504944207365DF
:102B90007474696E677300504944206F6666005410
:102BA000656D706572617475726520636F6E7472A5
:102BB0006F6C006F66660020736563004D61782E50
:102BC00020706F77657200506572696F64206F6660
:102BD000206D61782E20706F776572006F666600D9
:102BE000206D696E0054696D656F75740049646C81
:102BF000652074696D656F7574004241434B0042F6
:102C000041434B00436C69636B20746F20726574A1
:102C100075726E0053544F52450053746F726520A5
:102C20006F7074696F6E73004865617465722063BC
:102C30006865636B006D6D2F7300582F59204A65CE
:102C4000726B004D61782E20582F59204A65726BA7
:102C5000006D6D2F731E00416363656C00416363FB
:102C6000656C65726174696F6E004241434B00424E
:102C700041434B00436C69636B20746F2072657431
:102C800075726E0053544F52450053746F72652035
:102C900073657474696E677300416363656C657214
:102CA0006174696F6E006D6D2F730045004D617822
:102CB0002E2073706565642045006D6D2F73005A7A
:102CC000004D61782E207370656564205A006D6D2B
:102CD0002F730059004D61782E2073706565642054
:102CE00059006D6D2F730058004D61782E20737060
:102CF0006565642058004241434B004241434B000C
:102D0000436C69636B20746F2072657475726E001A
:102D100053544F52450053746F7265207365747439
:102D2000696E6773004D61782E205370656564008D
:102D30004532004578747275646572203220286DC2
:102D400041290045310045787472756465722031FF
:102D500020286D4129005A005A2061786973202883
:102D60006D412900582F5900582F592061786973F7
:102D700020286D4129004241434B004241434B0012
:102D8000436C69636B20746F2072657475726E009A
:102D900053544F52450053746F72652073657474B9
:102DA000696E6773004D6F746F7220437572726540
:102DB0006E74006D6D00456E64206C656E6774689E
:102DC00000456E64206F66207072696E74206C65B9
:102DD0006E677468006D6D2F730052657472616365
:102DE00074207370656564006D6D00526574726166
:102DF00063740052657472616374206C656E6774ED
:102E000068004241434B004241434B00436C6963BD
:102E10006B20746F2072657475726E0053544F523C
:102E2000450053746F72652073657474696E6773BF
:102E30000052657472616374696F6E207365747497
:102E4000696E6773006E6F00796573003A00496EB2
:102E50007665727400453200457874722E320045F2
:102E60003100457874722E31005A005A00590059C9
:102E700000580058004241434B004241434B00433D
:102E80006C69636B20746F2072657475726E005389
:102E9000544F52450053746F726520696E766572A7
:102EA0007420666C61677300496E76657274206188
:102EB00078697300453200457874727564657220D4
:102EC000322073746570732F6D6D00453100457845
:102ED00074727564657220312073746570732F6D20
:102EE0006D005A005A2073746570732F6D6D005910
:102EF00000592073746570732F6D6D005800582051
:102F000073746570732F6D6D004241434B004241F5
:102F1000434B00436C69636B20746F20726574755A
:102F2000726E0053544F52450053746F7265207394
:102F3000746570732F6D6D004178697320737465CB
:102F400070732F6D6D006D6D005A004D6178696D65
:102F5000756D205A20636F6F7264696E61746500CD
:102F60006D6D002D004D6178696D756D2059206380
:102F70006F6F7264696E617465006D6D0059004D0C
:102F8000696E696D756D205920636F6F7264696E2B
:102F9000617465006D6D002D004D6178696D756D12
:102FA000205820636F6F7264696E617465006D6D87
:102FB0000058004D696E696D756D205820636F6F04
:102FC0007264696E617465004241434B0042414343
:102FD0004B00436C69636B20746F2072657475726B
:102FE0006E0053544F52450053746F7265206178E0
:102FF0006973206C696D697473005072696E742016
:1030000061726561002500476C6F77004C45442074
:10301000736C65657020676C6F77006F666600255E
:10302000004C434420736C65657020636F6E74724E
:103030006173740053637265656E006F6666006D40
:10304000696E0053637265656E2074696D656F7596
:10305000740025004C454420736C656570206272D5
:10306000696768746E657373004C69676874006F94
:103070006666006D696E004C45442074696D656F2D
:103080007574004241434B004241434B00436C691D
:10309000636B20746F2072657475726E0053544FA9
:1030A00052450053746F7265206F7074696F6E7350
:1030B00000536C6565702074696D6572004D38341D
:1030C000205830205930004D3834205830205930A5
:1030D000004D383420583020593000446973616203
:1030E0006C652058592D7374657070657273004457
:1030F000697361626C652058592D737465707065D1
:103100007273004D6F7665206865616420746F206E
:1031100066726F6E74004D6F76652068656164201D
:10312000746F2066726F6E7400486F6D65206865FD
:10313000616400486F6D65206865616400424143C9
:103140004B004241434B00436C69636B20746F201A
:1031500072657475726E0053656C656374206F7070
:1031600074696F6E004D3834204530006D6D00522B
:103170006F7461746520746F20657874727564650E
:1031800000526573657420706F736974696F6E00A7
:10319000436C69636B202620686F6C6420746F2019
:1031A00070756C6C001F001F2F001F2F001F00295F
:1031B000200028004E6F7A7A6C6520004241434B14
:1031C000004241434B00436C69636B20746F207273
:1031D000657475726E0054554E450054554E450049
:1031E0004D6F7265206F7074696F6E7300290028CF
:1031F000004D6F7665206D6174657269616C004782
:10320000323820583000473238205930006D6D0078
:103210006D6D2F7300486F6D65205A20617869735A
:10322000005A206178697320706F736974696F6EDA
:10323000005A004D6F7665205A2061786973004806
:103240006F6D652059206178697300592061786934
:103250007320706F736974696F6E0059004D6F76DB
:10326000652059206178697300486F6D652058208A
:10327000617869730058206178697320706F736991
:1032800074696F6E0058004D6F7665205820617824
:103290006973004241434B004241434B00436C6918
:1032A000636B20746F2072657475726E0020414CE0
:1032B0004C00486F6D6520616C6C2061786573000F
:1032C0004D6F766520617869730044697361626C43
:1032D00065207374657070657273005265636F76F4
:1032E0006572207072696E74004D6F76652061782A
:1032F0006973004D383400457870657274206675C6
:103300006E6374696F6E73006D6D005A0052656371
:103310006F766572207072696E742066726F6D00D0
:103320005265636F766572206865696768740043EB
:10333000414E43454C00436C69636B20746F2072AF
:10334000657475726E005052494E54005374617228
:1033500074207072696E74005265636F76657220B6
:103360007072696E740041424F52540041424F5294
:10337000540041626F7274207072696E740054550B
:103380004E450054554E450054756E65206D656E72
:103390007500202F20005A0052656164696E672015
:1033A00066696C652E2E2E006D6D005A0043414EED
:1033B00043454C0053544F52450074686520627574
:1033C000696C64706C617465006E6F7A7A6C6520EC
:1033D000746F7563686573004D6F7665205A20754C
:1033E0006E74696C20746865004D38342058302044
:1033F0005930006D6D005A00746865206275696C03
:1034000064706C617465006E6F7A7A6C6520746F9D
:103410007563686573004D6F7665205A20756E740C
:10342000696C20746865004D38342058302059305C
:1034300000473120462569205A25692058256920F2
:1034400059256900205A300020593000205830009A
:103450004732380053746F7265205A206F66667366
:103460006574006D6D005A00426162797374657015
:10347000205A2061786973006D6D005900426162C5
:10348000797374657020592061786973006D6D00DF
:1034900058004261627973746570205820617869C0
:1034A00073004241434B004241434B00436C69630C
:1034B0006B20746F2072657475726E004261627960
:1034C0007374657070696E67001F00250046616E39
:1034D000001F001F0025006D6D2F73005370656580
:1034E00064200025006D6D1D2F7300466C6F7728DA
:1034F0003229200025006D6D1D2F7300466C6F77FB
:1035000028312920005A0042616279737465707015
:10351000696E6700476F746F2070616765203200C5
:10352000436F6E74726F6C206F7074696F6E73008E
:10353000546F67676C65204C4544006D6D2F7300B8
:10354000582F59204A65726B004D61782E20582FF4
:1035500059204A65726B006D6D2F731E00416363C5
:10356000656C00416363656C65726174696F6E00C0
:103570006D6D2F7300526574726163742073706592
:103580006564006D6D00526574726163740052650C
:103590007472616374206C656E67746800546F6741
:1035A000676C65204C454400436F6E74726F6C20ED
:1035B0006F7074696F6E7300476F746F207061670E
:1035C0006520310055534220636F6D6D756E6963E0
:1035D0006174696F6E2E2E2E0048656174696E6786
:1035E000206275696C64706C617465004865617413
:1035F000696E67206E6F7A7A6C65005061757369C9
:103600006E672E2E2E00436C69636B20746F2063EF
:103610006F6E74696E75652E2E2E00506175736520
:10362000642E2E2E00250050617573696E672E2E54
:103630002E005061757365642E2E2E001F2F001F03
:10364000001F00290028004275696C64706C617469
:103650006520001F2F001F001F00290028002920BF
:10366000004E6F7A7A6C6528001F001F001F004112
:10367000424F52540041424F52540041626F7274A3
:10368000207072696E740054554E450054554E4575
:103690000054756E65206D656E75001F002F001F4C
:1036A000002F001F002F00250048656174696E67B8
:1036B0002075702E2E2E2000000021104220633035
:1036C0008440A550C660E770088129914AA16BB17A
:1036D0008CC1ADD1CEE1EFF1311210027332522222
:1036E000B5529442F772D662399318837BB35AA3CA
:1036F000BDD39CC3FFF3DEE36224433420040114F2
:10370000E664C774A44485546AA54BB52885099519
:10371000EEE5CFF5ACC58DD55336722611163006C1
:10372000D776F6669556B4465BB77AA71997388769
:10373000DFF7FEE79DD7BCC7C448E5588668A77881
:103740004008611802282338CCC9EDD98EE9AFF9B9
:10375000488969990AA92BB9F55AD44AB77A966A61
:10376000711A500A333A122AFDDBDCCBBFFB9EEB09
:10377000799B588B3BBB1AABA66C877CE44CC55C31
:10378000222C033C600C411CAEED8FFDECCDCDDD59
:103790002AAD0BBD688D499D977EB66ED55EF44E01
:1037A000133E322E511E700E9FFFBEEFDDDFFCCFA9
:1037B0001BBF3AAF599F788F8891A981CAB1EBA1FD
:1037C0000CD12DC14EF16FE18010A100C230E32079
:1037D0000450254046706760B9839893FBA3DAB321
:1037E0003DC31CD37FE35EF3B1029012F322D232C9
:1037F0003542145277625672EAB5CBA5A8958985F1
:103800006EF54FE52CD50DC5E234C324A014810418
:103810006674476424540544DBA7FAB79987B897C0
:103820005FE77EF71DC73CD7D326F2369106B01668
:1038300057667676154634564CD96DC90EF92FE980
:10384000C899E9898AB9ABA94458654806782768B8
:10385000C018E1088238A3287DCB5CDB3FEB1EFB60
:10386000F98BD89BBBAB9ABB754A545A376A167A08
:10387000F10AD01AB32A923A2EFD0FED6CDD4DCD30
:10388000AABD8BADE89DC98D267C076C645C454C58
:10389000A23C832CE01CC10C1FEF3EFF5DCF7CDF00
:1038A0009BAFBABFD98FF89F176E367E554E745EA8
:1038B000932EB23ED10EF01E7C3C3E5E2B3D3F2F40
:1038C0005B5D3B2C2A225C0043616E6E6F74206549
:1038D0006E746572207375626469723A20004D32AD
:1038E00034004D3233202573006175746F25692EC5
:1038F00067006572726F722077726974696E6720F3
:10390000746F2066696C6500436172642065727231
:103910006F723A004E6F74205344207072696E7457
:10392000696E67002F005344207072696E74696E6F
:1039300067206279746520002E0044656C657469A7
:103940006F6E206661696C65642C2046696C653A0F
:10395000200046696C652064656C657465643A0096
:103960002E006F70656E206661696C65642C204660
:10397000696C653A200057726974696E6720746FCC
:103980002066696C653A20002E006F70656E2066B7
:1039900061696C65642C2046696C653A20002E00D4
:1039A0006F70656E206661696C65642C2046696C79
:1039B000653A200046696C652073656C65637465C3
:1039C00064002053697A653A200046696C65206F6F
:1039D00070656E65643A20002E006F70656E20661B
:1039E00061696C65642C2046696C653A200053441B
:1039F0002063617264206F6B006F70656E526F6F31
:103A000074206661696C656400766F6C756D652EF7
:103A1000696E6974206661696C656400534420694D
:103A20006E6974206661696C002F002F0043616E1F
:103A30006E6F74206F70656E2073756264697200BA
:103A40006563686F3A004572726F723A00205900E0
:103A50002058005769706520706F736974696F6EC4
:103A60003A0064697361626C656400656E61626CE2
:103A70006564004669726D7761726520776970656B
:103A80003A2000205900205800446F636B20706F6B
:103A9000736974696F6E3A00486F6D65206F666672
:103AA000736574207A3220286D6D293A200064698C
:103AB0007361626C656400656E61626C656400448C
:103AC00075616C2073657475703A20006563686F6A
:103AD0003A0047323800473238205A3000473238EF
:103AE00020583020593000776970650054310054F7
:103AF0003000636F6E666967006563686F3A004304
:103B00006865636B206665656465722E0050726936
:103B10006E74207061757365642E006973737565CA
:103B20002064657465637465642E004D617465720C
:103B300069616C207472616E73706F727400434FB0
:103B40004E54494E5545005072696E74207061752F
:103B50007365642E20436865636B206665656465E4
:103B6000722E004D6174657269616C207472616EB1
:103B700073706F7274206973737565206465746502
:103B8000637465642E006563686F3A004572726FF6
:103B9000723A004163746976652045787472756481
:103BA00065723A20004163746976652045787472C5
:103BB000756465723A20005072696E746572207384
:103BC000746F707065642064756520746F20657211
:103BD000726F72732E204669782074686520657252
:103BE000726F7220616E6420757365204D393939AA
:103BF00020746F20726573746172742E202854656E
:103C00006D70657261747572652069732072657379
:103C100065742E2053657420697420616674657222
:103C20002072657374617274696E672900507269DD
:103C30006E7465722068616C7465642E206B696CAB
:103C40006C28292063616C6C65642100496E766183
:103C50006C6964206578747275646572004D00202B
:103C6000400020403A002042403A00202F002054DB
:103C700000202F0020423A00202F0020543A006FED
:103C80006B00456E6473746F70207374696C6C2084
:103C90007072657373656420616674657220626119
:103CA000636B696E67206F66662E20456E64737461
:103CB0006F7020737475636B3F00456E6473746F2F
:103CC00070206E6F74207072657373656420616616
:103CD00074657220686F6D696E6720646F776E2EF1
:103CE00020456E6473746F702062726F6B656E3FF7
:103CF00000456E6473746F70206E6F74207072650F
:103D00007373656420616674657220686F6D696E97
:103D10006720646F776E2E20456E6473746F702019
:103D200062726F6B656E3F002200556E6B6E6F772F
:103D30006E20636F6D6D616E643A202200456C6584
:103D40006374726F6E6963735F746573740041634B
:103D5000746976652045787472756465723A2000DE
:103D6000496E76616C6964206578747275646572F9
:103D700000540020423A300020423A31006F6B205C
:103D8000523A00726573756D650020643A002069CF
:103D90003A0020703A006F6B0020643A0020693AC4
:103DA0000020703A006F6B002C002000486F746593
:103DB0006E64206F6666736574733A002200556EF8
:103DC0006B6E6F776E20636F6D6D616E643A20224B
:103DD000006F70656E005452494747455245440094
:103DE0007A5F6D61783A20006F70656E00545249B9
:103DF00047474552454400795F6D61783A20006F2E
:103E000070656E0054524947474552454400785FFB
:103E10006D696E3A20005265706F7274696E67202A
:103E2000656E6473746F702073746174757300458C
:103E30003A005A3A00593A0020436F756E74205880
:103E40003A2000453A005A3A00593A00583A00469A
:103E500049524D574152455F4E414D453A4D617271
:103E60006C696E20556C74696D616B6572323B20B4
:103E7000537072696E7465722F6772626C206D6127
:103E80007368757020666F722067656E36204649CC
:103E9000524D574152455F55524C3A687474703ACE
:103EA0002F2F6769746875622E636F6D2F556C7460
:103EB000696D616B65722050524F544F434F4C5F98
:103EC00056455253494F4E3A312E30204D414348CA
:103ED000494E455F545950453A556C74696D616B54
:103EE00065722045585452554445525F434F554ED4
:103EF000543A320A003F0020573A002569206D6984
:103F00006E2C2025692073656300456E6420666908
:103F10006C65206C69737400426567696E20666920
:103F20006C65206C69737400726573756D650070E3
:103F30006175736500256920686F75727320256946
:103F4000206D696E7574657300446F6E65207072C4
:103F5000696E74696E672066696C65006F6B0052EC
:103F60006573656E643A20005072696E74657220E4
:103F700073746F707065642064756520746F20655C
:103F800072726F72732E204669782074686520659E
:103F900072726F7220616E6420757365204D3939BD
:103FA0003920746F20726573746172742E202854E6
:103FB000656D7065726174757265206973207265D4
:103FC0007365742E2053657420697420616674656E
:103FD000722072657374617274696E6729004E6F26
:103FE000204C696E65204E756D626572207769742C
:103FF0006820636865636B73756D2C204C61737406
:10400000204C696E653A20004E6F20436865636BF3
:1040100073756D2077697468206C696E65206E75A4
:104020006D6265722C204C617374204C696E653A28
:104030002000636865636B73756D206D69736D61D6
:104040007463682C204C617374204C696E653A204F
:10405000004C696E65204E756D6265722069732033
:104060006E6F74204C617374204C696E65204E75C0
:104070006D6265722B312C204C617374204C696E1B
:10408000653A20004D313130002020506C616E6E59
:10409000657242756666657242797465733A20008E
:1040A0002046726565204D656D6F72793A20004F2C
:1040B0006374202037203230313700436F6D7069D0
:1040C0006C65643A200054696E6B65725F4D617275
:1040D0006B325F31372E303900207C204175746897
:1040E0006F723A20004F637420203720323031370E
:1040F0002031383A32343A353900204C617374201B
:10410000557064617465643A2000312E302E3000A1
:104110004D61726C696E200020536F667477617216
:104120006520526573657400205761746368646F1D
:1041300067205265736574002042726F776E206F3E
:104140007574205265736574002045787465726ECD
:10415000616C20526573657400506F77657255709D
:10416000007374617274002200656E717565696E0A
:1041700067202200446F6E6520736176696E672048
:1041800066696C652E006F6B004D3239002F2F6110
:104190006374696F6E3A00FF01010000E0400000A7
:1041A000E0400000E0406563686F3A004572726F5E
:1041B000723A0020746F6F206C6F6E6720657874A0
:1041C000727573696F6E2070726576656E74656462
:1041D0000020636F6C6420657874727573696F6E0C
:1041E0002070726576656E746564006563686F3A09
:1041F00000205A3A0020593A0020583A00656E646F
:1042000073746F7073206869743A200024F4D4309A
:1042100050C38E20C2A24017828B7011127A910D6A
:10422000816CD90AA861E108C75866076151430645
:104230001E4B5D05C145A7041A411104093D9803B1
:10424000713931034036DB0265339102D4305402B8
:10425000802E1D02632CEE01752AC501B028A00135
:10426000102781018F2564012B244B01E0223401AA
:10427000AC211F018D200D01801FFC00841EED006C
:10428000971DDF00B81CD200E61BC600201BBC0037
:10429000641AB200B219A8000A19A0006A1899009D
:1042A000D117910040178B00B516840031167E009F
:1042B000B31579003A157300C7146F0058146A00DB
:1042C000EE1366008813630025135E00C7125B00BF
:1042D0006C12570015125400C111510070114F009B
:1042E00021114B00D61049008D10470046104400A4
:1042F00002104200C00F4000800F3E00420F3C0001
:10430000060F3B00CB0E3800930E37005C0E3500D5
:10431000270E3400F30D3200C10D3100900D300036
:10432000600D2E00320D2D00050D2C00D90C2B0038
:10433000AE0C2900850C29005C0C2700350C2700E9
:104340000E0C2600E80B2400C40B2400A00B230055
:104350007D0B23005A0B2100390B2100180B200084
:10436000F80A1F00D90A1E00BB0A1E009D0A1D0084
:10437000800A1D00630A1C00470A1B002C0A1B0050
:10438000110A1A00F7091A00DD091900C4091900F9
:10439000AB091900920917007B091800630917007F
:1043A0004C09160036091600200916000A091500E6
:1043B000F5081500E0081400CC081400B808140033
:1043C000A4081400900813007D0812006B08130065
:1043D0005808120046081200340811002308110082
:1043E0001208110001081100F0071000E00710008A
:1043F000D0071000C0071000B0070F00A107100081
:1044000091070E0083070F0074070F0065070E0069
:1044100057070E0049070E003B070D002E070E0040
:1044200020070D0013070D0006070D00F9060C000C
:10443000ED060D00E0060C00D4060C00C8060C00CA
:10444000BC060C00B0060C00A4060B0099060C007C
:104450008D060B0082060B0077060B006C060B0026
:1044600061060A0057060B004C060A0042060A00C5
:1044700038060A002E060A0024060A001A060A0058
:104480001006090007060A00FD050900F4050900E9
:10449000EB050900E2050900D9050900D00509006E
:1044A000C7050900BE050900B5050800AD050800EF
:1044B000A50509009C050800940508008C05080066
:1044C000840508007C050800740508006C050700D9
:1044D000650508005D050700560508004E05070044
:1044E00047050700400508003805070031050700AB
:1044F0002A050700230507001C050600160507000E
:104500000F0507000805060002050700FB0406006A
:10451000F5040700EE040600E8040600E2040700C4
:10452000DB040600D5040600CF040600C90406001B
:10453000C3040600BD040600B7040600B10405006C
:10454000AC040600A6040600A00405009B040600B7
:1045500095040500900406008A0405008504050002
:10456000800406007A040500750405007004050047
:104570006B04050066040500610405005C04050089
:1045800057040500520405004D04050048040500C9
:10459000430405003E0404003A0405003504050008
:1045A000300404002C040500270404002304050043
:1045B0001E0404001A04040016040500110404007B
:1045C0000D040400090405000404040000040400B0
:1045D000FC030400F8030400F4030400F0030400E7
:1045E000EC030400E8030400E4030400E003040017
:1045F000DC030400D8030400D4030400D003040047
:10460000CC030400C8030300C503030024F404D949
:10461000201BC40C5C0E9804C4095F02650771017D
:10462000F405F900FB04B30048048700C1036900E6
:104630005803550003034500BE023A0084023100CE
:1046400053022A002902250004022000E4011C0074
:10465000C8011900AF01170098011400840113006C
:10466000710110006101100051010E0043010D00A5
:1046700036010B002B010B0020010B001501090076
:104680000C01090003010800FB000800F30008000A
:10469000EB000700E4000600DE000600D80006007C
:1046A000D2000600CC000500C7000500C2000500CE
:1046B000BD000400B9000400B5000400B10004000E
:1046C000AD000400A9000400A5000300A20003003F
:1046D0009F0004009B000300980003009500020067
:1046E00093000300900003008D0002008B00030084
:1046F000880002008600020084000300810002009E
:104700007F0002007D0002007B00020079000200B1
:1047100077000100760002007400020072000100C0
:10472000710002006F0002006D0001006C000200C9
:104730006A000100690002006700010066000100D4
:1047400065000100640002006200010061000100D8
:10475000600001005F0002005D0001005C000100DC
:104760005B0001005A0001005900010058000100DF
:1047700057000100560001005500010054000100DF
:1047800053000000530001005200010051000100DD
:10479000500001004F0001004E0000004E000100DB
:1047A0004D0001004C0001004B0000004B000100D7
:1047B0004A000100490001004800000048000100D3
:1047C00047000100460000004600010045000000CF
:1047D00045000100440001004300000043000100C7
:1047E00042000000420001004100000041000100C1
:1047F000400001003F0000003F0001003E000000BB
:104800003E0001003D0000003D0001003C000000B2
:104810003C0000003C0001003B0000003B000100A8
:104820003A0000003A0001003900000039000100A0
:104830003800000038000000380001003700000098
:10484000370001003600000036000000360001008D
:104850003500000035000000350001003400000084
:104860003400000034000100330000003300000079
:10487000330001003200000032000000320001006D
:104880003100000031000000310001003000000064
:1048900030000000300001002F0000002F00000059
:1048A0002F0000002F0001002E0000002E0000004D
:1048B0002E0001002D0000002D0000002D00000042
:1048C0002D0001002C0000002C0000002C00000036
:1048D0002C0001002B0000002B0000002B0000002A
:1048E0002B0001002A0000002A0000002A0000001E
:1048F0002A00010029000000290000002900000012
:104900002900000029000100280000002800000004
:1049100028000000280000002800010027000000F7
:1049200027000000270000002700000027000100EA
:1049300026000000260000002600000026000000DF
:1049400026000100250000002500000025000000D1
:1049500025000000250000002500010024000000C3
:1049600024000000240000002400000024000100B6
:1049700023000000230000002300000023000000AB
:10498000230000002300000023000100220000009B
:10499000220000002200000022000000220000008F
:1049A0002200010021000000210000002100000081
:1049B0002100000021000000210000002100010072
:1049C0002000000020000000200000002000000067
:1049D0002000000020000000200000002000010056
:1049E0001F0000001F0000001F0000001F0000004B
:1049F0001F0000001F0000001F0001001E0000003B
:104A00001E0000001E0000001E0000006563686FAD
:104A10003A003A204578747275646572207377693C
:104A20007463686564206F66662E204D494E544558
:104A30004D50207472696767657265642021003A81
:104A40002045787472756465722073776974636841
:104A50006564206F66662E204D415854454D5020A8
:104A600074726967676572656420210054656D70B2
:104A70006572617475726520686561746564206231
:104A80006564207377697463686564206F66662E59
:104A9000204D415854454D502074726967676572C6
:104AA000656420212100202D20496E76616C6964A7
:104AB000206578747275646572206E756D626572BA
:104AC000202100504944204175746F74756E652033
:104AD00061626F727465642E0050494420417574A0
:104AE0006F74756E652066696E69736865642120F0
:104AF00050757420746865204B702C204B692061C0
:104B00006E64204B6420636F6E7374616E747320E7
:104B1000696E746F20436F6E666967757261746940
:104B20006F6E2E6800504944204175746F74756E25
:104B300065206661696C6564212074696D656F75B7
:104B4000740020403A006F6B20543A006F6B204293
:104B50003A00504944204175746F74756E65206643
:104B600061696C6564212054656D7065726174754E
:104B7000726520746F6F206869676800204B643A23
:104B80002000204B693A2000204B703A200020433F
:104B90006C61737369632050494420002054753A56
:104BA0002000204B753A2000206D61783A200020CB
:104BB0006D696E3A200020643A20002062696173BA
:104BC0003A2000504944204175746F74756E652019
:104BD000737461727400504944204175746F747528
:104BE0006E65206661696C65642E20426164206593
:104BF00078747275646572206E756D6265722E00D0
:104C00004572726F723A000000000018070100A898
:104C100007140030082800B8083C0038095000C0CC
:104C2000096400480A7800C80A8C00480BA000C834
:104C30000BB400480CC800C80CDC00400DF000C0EC
:104C40000D0401380E1801B00E2C01280F4001A0F0
:104C50000F54011810680188107C01001190013078
:104C600013F401481558024017BC0228192003F01C
:104C70001A8403A81CE803401E4C04486172646354
:104C80006F6465642044656661756C742053657457
:104C900074696E6773204C6F6164656400563031CF
:104CA000300053746F7265642073657474696E6745
:104CB0007320726574726965766564002044002013
:104CC00049002020204D33303120500050494420ED
:104CD00073657474696E67733A00205A0020590036
:104CE00020204D323036205800486F6D65206F66A9
:104CF0006673657420286D6D293A00204500205A9E
:104D00000020580020420020540020204D32303531
:104D1000205300416476616E636564207661726938
:104D200061626C65733A20533D4D696E206665651E
:104D3000647261746520286D6D2F73292C20543D99
:104D40004D696E2074726176656C2066656564726B
:104D500061746520286D6D2F73292C20423D6D698B
:104D60006E696D756D207365676D656E742074690D
:104D70006D6520286D73292C20583D6D6178696D13
:104D8000756D205859206A65726B20286D6D2F73E0
:104D9000292C20205A3D6D6178696D756D205A204F
:104DA0006A65726B20286D6D2F73292C2020453D7C
:104DB0006D6178696D756D2045206A65726B20287C
:104DC0006D6D2F73290020540020204D3230342087
:104DD0005300416363656C65726174696F6E3A205C
:104DE000533D616363656C65726174696F6E2C20FD
:104DF000543D7265747261637420616363656C65B0
:104E0000726174696F6E00204500205A00205900BD
:104E100020204D3230312058004D6178696D756D1C
:104E200020416363656C65726174696F6E20286DE3
:104E30006D2F7332293A00204500205A0020590076
:104E400020204D3230332058004D6178696D756DEA
:104E50002066656564726174657320286D6D2F73BB
:104E6000293A00204500205A0020590020204D39C1
:104E70003220580053746570732070657220756E0F
:104E800069743A0053657474696E67732053746F64
:104E9000726564006563686F3A00544553540D0AA7
:104EA000000D0A00556E6B6E6F776E20636F6D6D2F
:104EB000616E643A20000D0A003F0054696E6B6514
:104EC000725F4D61726B325F31372E3039004E4167
:104ED0004E494E495459494E46CDCCCC3D0AD72374
:104EE0003C17B7D13877CC2B329595E6241FB14FBC
:104EF0000A000020410000C84200401C4620BCBE01
:104F00004CCA1B0E5AAEC59D740045C57A01B80146
:104F1000A2017E0111241FBECFEFD1E2DEBFCDBFC3
:104F200000E00CBF13E0A0E0B2E0E8EBFFE603E036
:104F30000BBF02C007900D92A238B107D9F729E143
:104F4000A2E8B3E001C01D92AE30B207E1F717E26C
:104F5000C8E8D7E200E006C021970109802FFE01D2
:104F60000F94B6AFC538D10780E00807A9F70F94B2
:104F7000AFAA0D94CAB70C9400001F920F920FB6FF
:104F80000F9211242F933F938F939F93AF93BF93CF
:104F90008091830390918403A0918503B09186034F
:104FA0003091820323E0230F2D3720F40196A11DB9
:104FB000B11D05C026E8230F0296A11DB11D209347
:104FC00082038093830390938403A0938503B0931B
:104FD00086038091870390918803A0918903B09103
:104FE0008A030196A11DB11D8093870390938803C6
:104FF000A0938903B0938A03BF91AF919F918F9142
:105000003F912F910F900FBE0F901F9018952FB7C3
:10501000F89460918303709184038091850390914B
:1050200086032FBF08953FB7F8948091870390912E
:105030008803A0918903B0918A0326B5A89B05C077
:105040002F3F19F00196A11DB11D3FBFBA2FA92F07
:10505000982F8827820F911DA11DB11DBC01CD0184
:1050600042E0660F771F881F991F4A95D1F7089570
:105070008F929F92AF92BF92CF92DF92EF92FF9268
:105080006B017C01D0DF4B015C01C114D104E10450
:10509000F104F1F093D0C7DFDC01CB018819990945
:1050A000AA09BB09883E9340A105B10570F321E030
:1050B000C21AD108E108F10888EE880E83E0981E34
:1050C000A11CB11CC114D104E104F10421F7DDCF0E
:1050D000FF90EF90DF90CF90BF90AF909F908F9018
:1050E00008958230910538F0880F991F880F991F15
:1050F00005970197F1F70895789484B5826084BD8F
:1051000084B5816084BD85B5826085BD85B58160CB
:1051100085BDEEE6F0E0808181608083E1E8F0E02B
:105120001082808182608083808181608083E0E85A
:10513000F0E0808181608083E1EBF0E08081846039
:105140008083E0EBF0E0808181608083E1E9F0E042
:10515000808182608083808181608083E0E9F0E0EB
:10516000808181608083E1EAF0E0808182608083D9
:10517000808181608083E0EAF0E0808181608083CB
:10518000E1E2F1E0808182608083808181608083C0
:10519000E0E2F1E0808181608083EAE7F0E08081F5
:1051A000846080838081826080838081816080834D
:1051B0008081806880831092C100089508951F93B4
:1051C000CF93DF93182FEB0161E016D1209711F4F4
:1051D00060E004C0CF3FD10531F461E0812FDF9161
:1051E000CF911F9145C1E12FF0E0EC58FC4FE491C5
:1051F0004E2F50E0FA013197E231F10508F09DC0E1
:105200008827EE58FF4F8F4F0D94B6AF84B5806856
:1052100084BDC7BD97C084B5806284BDC8BD92C03F
:1052200080918000806880938000D0938900C09333
:10523000880088C080918000806280938000D09335
:105240008B00C0938A007EC080918000886080932C
:105250008000D0938D00C0938C0074C08091B0000A
:1052600080688093B000C093B3006CC08091B000A0
:1052700080628093B000C093B40064C080919000BD
:10528000806880939000D0939900C09398005AC092
:1052900080919000806280939000D0939B00C09397
:1052A0009A0050C080919000886080939000D093C5
:1052B0009D00C0939C0046C08091A00080688093B0
:1052C000A0008091A0008F7B8093A000D093A900C4
:1052D000C093A80037C08091A00080628093A00096
:1052E000D093AB00C093AA002DC08091A00088602D
:1052F0008093A000D093AD00C093AC0023C08091F8
:105300002001806880932001D0932901C093280157
:1053100019C080912001806280932001D0932B01DD
:10532000C0932A010FC080912001886080932001E2
:10533000D0932D01C0932C0105C0C038D1050CF0CD
:105340004CCF46CFDF91CF911F91089590E0FC01A3
:105350003197E231F10508F04EC08827EC57FF4F36
:105360008F4F0D94B6AF809180008F7703C08091EE
:1053700080008F7D80938000089580918000877FDA
:10538000F9CF84B58F7702C084B58F7D84BD089531
:105390008091B0008F7703C08091B0008F7D8093A3
:1053A000B0000895809190008F7707C080919000A1
:1053B0008F7D03C080919000877F80939000089537
:1053C0008091A0008F7707C08091A0008F7D03C0DF
:1053D0008091A000877F8093A00008958091200194
:1053E0008F7707C0809120018F7D03C080912001BD
:1053F000877F809320010895CF93DF9390E0FC0195
:10540000E654FC4F2491FC01E050FC4F849188232A
:1054100061F190E0880F991FFC01E05AFB4FC591A4
:10542000D491FC01EA5BFB4FA591B491611109C0D5
:105430009FB7F8948881209582238883EC912E234E
:105440000BC0623061F49FB7F8943881822F809549
:1054500083238883EC912E2B2C939FBF06C08FB79C
:10546000F894E8812E2B28838FBFDF91CF91089588
:105470001F93CF93DF93282F30E0F901EC58FC4FB6
:105480008491F901E654FC4FD491F901E050FC4FAE
:10549000C491CC23C1F0162F811158DFEC2FF0E01E
:1054A000EE0FFF1FEA5BFB4FA591B4918FB7F89405
:1054B000111105C09C91ED2FE095E92302C0EC91FC
:1054C000ED2BEC938FBFDF91CF911F91089508953D
:1054D0001F920F920FB60F9211240BB60F922F93BB
:1054E0003F934F935F936F937F938F939F93AF936C
:1054F000BF93EF93FF93E0910E02F0910F02199585
:10550000FF91EF91BF91AF919F918F917F916F919B
:105510005F914F913F912F910F900BBE0F900FBE57
:105520000F901F9018951F920F920FB60F92112493
:105530000BB60F922F933F934F935F936F937F938D
:105540008F939F93AF93BF93EF93FF93E0911002DC
:10555000F09111021995FF91EF91BF91AF919F9139
:105560008F917F916F915F914F913F912F910F900C
:105570000BBE0F900FBE0F901F9018951F920F92A9
:105580000FB60F9211240BB60F922F933F934F93A8
:105590005F936F937F938F939F93AF93BF93EF939B
:1055A000FF93E0911202F09113021995FF91EF9190
:1055B000BF91AF919F918F917F916F915F914F912B
:1055C0003F912F910F900BBE0F900FBE0F901F9029
:1055D00018951F920F920FB60F9211240BB60F92CF
:1055E0002F933F934F935F936F937F938F939F93EB
:1055F000AF93BF93EF93FF93E0911402F0911502E4
:105600001995FF91EF91BF91AF919F918F917F91EC
:105610006F915F914F913F912F910F900BBE0F9023
:105620000FBE0F901F9018951F920F920FB60F92FA
:1056300011240BB60F922F933F934F935F936F9369
:105640007F938F939F93AF93BF93EF93FF93E091DB
:105650000A02F0910B021995FF91EF91BF91AF9162
:105660009F918F917F916F915F914F913F912F917A
:105670000F900BBE0F900FBE0F901F9018951F92AA
:105680000F920FB60F9211240BB60F922F933F93E8
:105690004F935F936F937F938F939F93AF93BF933A
:1056A000EF93FF93E0910C02F0910D021995FF9199
:1056B000EF91BF91AF919F918F917F916F915F918A
:1056C0004F913F912F910F900BBE0F900FBE0F90F7
:1056D0001F9018951F920F920FB60F9211240BB6C0
:1056E0000F922F933F934F935F936F937F938F937B
:1056F0009F93AF93BF93EF93FF93E0911602F091C6
:1057000017021995FF91EF91BF91AF919F918F91E2
:105710007F916F915F914F913F912F910F900BBEB1
:105720000F900FBE0F901F9018951F920F920FB6FB
:105730000F9211240BB60F922F933F934F935F93C9
:105740006F937F938F939F93AF93BF93EF93FF9349
:10575000E0911802F09119021995FF91EF91BF9114
:10576000AF919F918F917F916F915F914F913F91F9
:105770002F910F900BBE0F900FBE0F901F9018959A
:10578000CF92DF92EF92FF920F931F93CF93DF930D
:10579000CDB7DEB72A970FB6F894DEBF0FBECDBFE8
:1057A00088E89FEF9093C2038093C1030E944E3715
:1057B000811102C01092C7034091C70388E0840F93
:1057C000405E682F0E9453370E9468360E94393C21
:1057D00043EE56E066E180E00E948F3D6CE575E0A7
:1057E00086E30E94E2398091C70381508335C8F077
:1057F0000E946E368091A403811149C02091C70395
:1058000030E0220F331F40912602429FC001439F88
:10581000900D112464E670E00F9465AF88E0CFDC52
:1058200036C007E116E1E12CF12CDE2C4091C703D4
:10583000842F90E0880F991F97012D5E3F4F281706
:10584000390744F4440F44514E19202F612F80E052
:105850000E94443C8091C703282F30E0220F331F61
:105860002E153F0534F0880F202F4FE7612F8D193B
:1058700004C0202F4FE7612F80E00E94443C2FEFAF
:10588000E21AF20A1E5F0E5F1A3279F6B1CF8091EA
:10589000C603811105C08091C003882309F458C054
:1058A0008091A40381110CC0809126022FEF829F6A
:1058B000C001112464E670E00F9465AF88E07FDCDE
:1058C0001092C6031092C7038091BB0981FF04C0E8
:1058D00040E060E080E003C046E368E288E20E94C6
:1058E00053370E94683680E094E00F9499B785356D
:1058F00099F460E080E499E02A960FB6F894DEBF50
:105900000FBECDBFDF91CF911F910F91FF90EF9010
:10591000DF90CF900C9419BCC090C0031A821982FA
:105920001C821B8285E59EE4282F9E838D8388E858
:105930009FEF482F98878F83E12CFA8000E01C812D
:105940003E81588560E070E080E499E00E9438BBB9
:105950002A960FB6F894DEBF0FBECDBFDF91CF9170
:105960001F910F91FF90EF90DF90CF900895CF920D
:10597000EF92FF920F931F93CF93DF93CDB7DEB7D4
:105980002A970FB6F894DEBF0FBECDBF0F94040C5C
:105990000E94263F0E94137881110AC00E946F70F6
:1059A00060E080E00E94047661E080E00E9404767E
:1059B0000E94C6722CDBDC01CB0182519D4FAF4FA0
:1059C000BF4F80938B0390938C03A0938D03B09370
:1059D0008E031092C6031092C70310928F031A828F
:1059E00019821C821B8280EA96EA282F9E838D836F
:1059F00084E090E0482F98878F83C12CE12CFA80B7
:105A000000E01C813E81588560E070E080E499E010
:105A10000E94A4BB1A8219821C821B8280EC9BE22A
:105A2000282F9E838D8388E89FEF482F98878F8348
:105A3000FA801C813E81588560E070E080E499E046
:105A40000E94C6BB60E070E088E02A960FB6F8942A
:105A5000DEBF0FBECDBFDF91CF911F910F91FF90A1
:105A6000EF90CF90ACCBCF92DF92EF92FF920F935B
:105A70001F93CF93DF93CDB7DEB7A0970FB6F894FF
:105A8000DEBF0FBECDBFC3DAC0908B03D0908C03B6
:105A9000E0908D03F0908E03C616D706E806F9064F
:105AA00018F5D701C6018196A11DB11D80938B0306
:105AB00090938C03A0938D03B0938E039091C603B3
:105AC0008091C703992341F082508093C7038111CD
:105AD0000BC01092C60308C08E5F8093C7038E3739
